{
	"ddos.sol": {
		"Blacklist": {
			"abi": [
				{
					"anonymous": false,
					"inputs": [
						{
							"indexed": false,
							"internalType": "string",
							"name": "ip",
							"type": "string"
						},
						{
							"indexed": false,
							"internalType": "string",
							"name": "reason",
							"type": "string"
						},
						{
							"indexed": false,
							"internalType": "uint256",
							"name": "timestamp",
							"type": "uint256"
						}
					],
					"name": "Blacklisted",
					"type": "event"
				},
				{
					"inputs": [
						{
							"internalType": "string",
							"name": "ip",
							"type": "string"
						},
						{
							"internalType": "string",
							"name": "reason",
							"type": "string"
						}
					],
					"name": "addIP",
					"outputs": [],
					"stateMutability": "nonpayable",
					"type": "function"
				},
				{
					"inputs": [
						{
							"internalType": "uint256",
							"name": "",
							"type": "uint256"
						}
					],
					"name": "blacklist",
					"outputs": [
						{
							"internalType": "string",
							"name": "ip",
							"type": "string"
						},
						{
							"internalType": "string",
							"name": "reason",
							"type": "string"
						},
						{
							"internalType": "uint256",
							"name": "timestamp",
							"type": "uint256"
						}
					],
					"stateMutability": "view",
					"type": "function"
				},
				{
					"inputs": [
						{
							"internalType": "uint256",
							"name": "index",
							"type": "uint256"
						}
					],
					"name": "getIP",
					"outputs": [
						{
							"internalType": "string",
							"name": "",
							"type": "string"
						},
						{
							"internalType": "string",
							"name": "",
							"type": "string"
						},
						{
							"internalType": "uint256",
							"name": "",
							"type": "uint256"
						}
					],
					"stateMutability": "view",
					"type": "function"
				},
				{
					"inputs": [],
					"name": "getLength",
					"outputs": [
						{
							"internalType": "uint256",
							"name": "",
							"type": "uint256"
						}
					],
					"stateMutability": "view",
					"type": "function"
				}
			],
			"devdoc": {
				"kind": "dev",
				"methods": {},
				"version": 1
			},
			"evm": {
				"assembly": "    /* \"ddos.sol\":60:771  contract Blacklist {... */\n  mstore(0x40, 0x80)\n  callvalue\n  dup1\n  iszero\n  tag_1\n  jumpi\n  revert(0x00, 0x00)\ntag_1:\n  pop\n  dataSize(sub_0)\n  dup1\n  dataOffset(sub_0)\n  0x00\n  codecopy\n  0x00\n  return\nstop\n\nsub_0: assembly {\n        /* \"ddos.sol\":60:771  contract Blacklist {... */\n      mstore(0x40, 0x80)\n      callvalue\n      dup1\n      iszero\n      tag_1\n      jumpi\n      revert(0x00, 0x00)\n    tag_1:\n      pop\n      jumpi(tag_2, lt(calldatasize, 0x04))\n      shr(0xe0, calldataload(0x00))\n      dup1\n      0x0f2a0919\n      eq\n      tag_3\n      jumpi\n      dup1\n      0x436aa76c\n      eq\n      tag_4\n      jumpi\n      dup1\n      0xbe1c766b\n      eq\n      tag_5\n      jumpi\n      dup1\n      0xdd98baea\n      eq\n      tag_6\n      jumpi\n    tag_2:\n      revert(0x00, 0x00)\n        /* \"ddos.sol\":187:211  Entry[] public blacklist */\n    tag_3:\n      tag_7\n      0x04\n      dup1\n      calldatasize\n      sub\n      dup2\n      add\n      swap1\n      tag_8\n      swap2\n      swap1\n      tag_9\n      jump\t// in\n    tag_8:\n      tag_10\n      jump\t// in\n    tag_7:\n      mload(0x40)\n      tag_11\n      swap4\n      swap3\n      swap2\n      swap1\n      tag_12\n      jump\t// in\n    tag_11:\n      mload(0x40)\n      dup1\n      swap2\n      sub\n      swap1\n      return\n        /* \"ddos.sol\":484:670  function getIP(uint index) public view returns (string memory, string memory, uint256) {... */\n    tag_4:\n      tag_13\n      0x04\n      dup1\n      calldatasize\n      sub\n      dup2\n      add\n      swap1\n      tag_14\n      swap2\n      swap1\n      tag_9\n      jump\t// in\n    tag_14:\n      tag_15\n      jump\t// in\n    tag_13:\n      mload(0x40)\n      tag_16\n      swap4\n      swap3\n      swap2\n      swap1\n      tag_12\n      jump\t// in\n    tag_16:\n      mload(0x40)\n      dup1\n      swap2\n      sub\n      swap1\n      return\n        /* \"ddos.sol\":678:768  function getLength() public view returns (uint) {... */\n    tag_5:\n      tag_17\n      tag_18\n      jump\t// in\n    tag_17:\n      mload(0x40)\n      tag_19\n      swap2\n      swap1\n      tag_20\n      jump\t// in\n    tag_19:\n      mload(0x40)\n      dup1\n      swap2\n      sub\n      swap1\n      return\n        /* \"ddos.sol\":289:476  function addIP(string memory ip, string memory reason) public {... */\n    tag_6:\n      tag_21\n      0x04\n      dup1\n      calldatasize\n      sub\n      dup2\n      add\n      swap1\n      tag_22\n      swap2\n      swap1\n      tag_23\n      jump\t// in\n    tag_22:\n      tag_24\n      jump\t// in\n    tag_21:\n      stop\n        /* \"ddos.sol\":187:211  Entry[] public blacklist */\n    tag_10:\n      0x00\n      dup2\n      dup2\n      sload\n      dup2\n      lt\n      tag_25\n      jumpi\n      0x00\n      dup1\n      revert\n    tag_25:\n      swap1\n      0x00\n      mstore\n      keccak256(0x00, 0x20)\n      swap1\n      0x03\n      mul\n      add\n      0x00\n      swap2\n      pop\n      swap1\n      pop\n      dup1\n      0x00\n      add\n      dup1\n      sload\n      tag_27\n      swap1\n      tag_28\n      jump\t// in\n    tag_27:\n      dup1\n      0x1f\n      add\n      0x20\n      dup1\n      swap2\n      div\n      mul\n      0x20\n      add\n      mload(0x40)\n      swap1\n      dup2\n      add\n      0x40\n      mstore\n      dup1\n      swap3\n      swap2\n      swap1\n      dup2\n      dup2\n      mstore\n      0x20\n      add\n      dup3\n      dup1\n      sload\n      tag_29\n      swap1\n      tag_28\n      jump\t// in\n    tag_29:\n      dup1\n      iszero\n      tag_30\n      jumpi\n      dup1\n      0x1f\n      lt\n      tag_31\n      jumpi\n      0x0100\n      dup1\n      dup4\n      sload\n      div\n      mul\n      dup4\n      mstore\n      swap2\n      0x20\n      add\n      swap2\n      jump(tag_30)\n    tag_31:\n      dup3\n      add\n      swap2\n      swap1\n      0x00\n      mstore\n      keccak256(0x00, 0x20)\n      swap1\n    tag_32:\n      dup2\n      sload\n      dup2\n      mstore\n      swap1\n      0x01\n      add\n      swap1\n      0x20\n      add\n      dup1\n      dup4\n      gt\n      tag_32\n      jumpi\n      dup3\n      swap1\n      sub\n      0x1f\n      and\n      dup3\n      add\n      swap2\n    tag_30:\n      pop\n      pop\n      pop\n      pop\n      pop\n      swap1\n      dup1\n      0x01\n      add\n      dup1\n      sload\n      tag_33\n      swap1\n      tag_28\n      jump\t// in\n    tag_33:\n      dup1\n      0x1f\n      add\n      0x20\n      dup1\n      swap2\n      div\n      mul\n      0x20\n      add\n      mload(0x40)\n      swap1\n      dup2\n      add\n      0x40\n      mstore\n      dup1\n      swap3\n      swap2\n      swap1\n      dup2\n      dup2\n      mstore\n      0x20\n      add\n      dup3\n      dup1\n      sload\n      tag_34\n      swap1\n      tag_28\n      jump\t// in\n    tag_34:\n      dup1\n      iszero\n      tag_35\n      jumpi\n      dup1\n      0x1f\n      lt\n      tag_36\n      jumpi\n      0x0100\n      dup1\n      dup4\n      sload\n      div\n      mul\n      dup4\n      mstore\n      swap2\n      0x20\n      add\n      swap2\n      jump(tag_35)\n    tag_36:\n      dup3\n      add\n      swap2\n      swap1\n      0x00\n      mstore\n      keccak256(0x00, 0x20)\n      swap1\n    tag_37:\n      dup2\n      sload\n      dup2\n      mstore\n      swap1\n      0x01\n      add\n      swap1\n      0x20\n      add\n      dup1\n      dup4\n      gt\n      tag_37\n      jumpi\n      dup3\n      swap1\n      sub\n      0x1f\n      and\n      dup3\n      add\n      swap2\n    tag_35:\n      pop\n      pop\n      pop\n      pop\n      pop\n      swap1\n      dup1\n      0x02\n      add\n      sload\n      swap1\n      pop\n      dup4\n      jump\t// out\n        /* \"ddos.sol\":484:670  function getIP(uint index) public view returns (string memory, string memory, uint256) {... */\n    tag_15:\n        /* \"ddos.sol\":532:545  string memory */\n      0x60\n        /* \"ddos.sol\":547:560  string memory */\n      dup1\n        /* \"ddos.sol\":562:569  uint256 */\n      0x00\n        /* \"ddos.sol\":582:596  Entry memory e */\n      0x00\n        /* \"ddos.sol\":599:608  blacklist */\n      0x00\n        /* \"ddos.sol\":609:614  index */\n      dup6\n        /* \"ddos.sol\":599:615  blacklist[index] */\n      dup2\n      sload\n      dup2\n      lt\n      tag_39\n      jumpi\n      tag_40\n      tag_41\n      jump\t// in\n    tag_40:\n    tag_39:\n      swap1\n      0x00\n      mstore\n      keccak256(0x00, 0x20)\n      swap1\n      0x03\n      mul\n      add\n        /* \"ddos.sol\":582:615  Entry memory e = blacklist[index] */\n      mload(0x40)\n      dup1\n      0x60\n      add\n      0x40\n      mstore\n      swap1\n      dup2\n      0x00\n      dup3\n      add\n      dup1\n      sload\n      tag_43\n      swap1\n      tag_28\n      jump\t// in\n    tag_43:\n      dup1\n      0x1f\n      add\n      0x20\n      dup1\n      swap2\n      div\n      mul\n      0x20\n      add\n      mload(0x40)\n      swap1\n      dup2\n      add\n      0x40\n      mstore\n      dup1\n      swap3\n      swap2\n      swap1\n      dup2\n      dup2\n      mstore\n      0x20\n      add\n      dup3\n      dup1\n      sload\n      tag_44\n      swap1\n      tag_28\n      jump\t// in\n    tag_44:\n      dup1\n      iszero\n      tag_45\n      jumpi\n      dup1\n      0x1f\n      lt\n      tag_46\n      jumpi\n      0x0100\n      dup1\n      dup4\n      sload\n      div\n      mul\n      dup4\n      mstore\n      swap2\n      0x20\n      add\n      swap2\n      jump(tag_45)\n    tag_46:\n      dup3\n      add\n      swap2\n      swap1\n      0x00\n      mstore\n      keccak256(0x00, 0x20)\n      swap1\n    tag_47:\n      dup2\n      sload\n      dup2\n      mstore\n      swap1\n      0x01\n      add\n      swap1\n      0x20\n      add\n      dup1\n      dup4\n      gt\n      tag_47\n      jumpi\n      dup3\n      swap1\n      sub\n      0x1f\n      and\n      dup3\n      add\n      swap2\n    tag_45:\n      pop\n      pop\n      pop\n      pop\n      pop\n      dup2\n      mstore\n      0x20\n      add\n      0x01\n      dup3\n      add\n      dup1\n      sload\n      tag_48\n      swap1\n      tag_28\n      jump\t// in\n    tag_48:\n      dup1\n      0x1f\n      add\n      0x20\n      dup1\n      swap2\n      div\n      mul\n      0x20\n      add\n      mload(0x40)\n      swap1\n      dup2\n      add\n      0x40\n      mstore\n      dup1\n      swap3\n      swap2\n      swap1\n      dup2\n      dup2\n      mstore\n      0x20\n      add\n      dup3\n      dup1\n      sload\n      tag_49\n      swap1\n      tag_28\n      jump\t// in\n    tag_49:\n      dup1\n      iszero\n      tag_50\n      jumpi\n      dup1\n      0x1f\n      lt\n      tag_51\n      jumpi\n      0x0100\n      dup1\n      dup4\n      sload\n      div\n      mul\n      dup4\n      mstore\n      swap2\n      0x20\n      add\n      swap2\n      jump(tag_50)\n    tag_51:\n      dup3\n      add\n      swap2\n      swap1\n      0x00\n      mstore\n      keccak256(0x00, 0x20)\n      swap1\n    tag_52:\n      dup2\n      sload\n      dup2\n      mstore\n      swap1\n      0x01\n      add\n      swap1\n      0x20\n      add\n      dup1\n      dup4\n      gt\n      tag_52\n      jumpi\n      dup3\n      swap1\n      sub\n      0x1f\n      and\n      dup3\n      add\n      swap2\n    tag_50:\n      pop\n      pop\n      pop\n      pop\n      pop\n      dup2\n      mstore\n      0x20\n      add\n      0x02\n      dup3\n      add\n      sload\n      dup2\n      mstore\n      pop\n      pop\n      swap1\n      pop\n        /* \"ddos.sol\":634:635  e */\n      dup1\n        /* \"ddos.sol\":634:638  e.ip */\n      0x00\n      add\n      mload\n        /* \"ddos.sol\":640:641  e */\n      dup2\n        /* \"ddos.sol\":640:648  e.reason */\n      0x20\n      add\n      mload\n        /* \"ddos.sol\":650:651  e */\n      dup3\n        /* \"ddos.sol\":650:661  e.timestamp */\n      0x40\n      add\n      mload\n        /* \"ddos.sol\":626:662  return (e.ip, e.reason, e.timestamp) */\n      swap4\n      pop\n      swap4\n      pop\n      swap4\n      pop\n      pop\n        /* \"ddos.sol\":484:670  function getIP(uint index) public view returns (string memory, string memory, uint256) {... */\n      swap2\n      swap4\n      swap1\n      swap3\n      pop\n      jump\t// out\n        /* \"ddos.sol\":678:768  function getLength() public view returns (uint) {... */\n    tag_18:\n        /* \"ddos.sol\":720:724  uint */\n      0x00\n        /* \"ddos.sol\":744:753  blacklist */\n      0x00\n        /* \"ddos.sol\":744:760  blacklist.length */\n      dup1\n      sload\n      swap1\n      pop\n        /* \"ddos.sol\":737:760  return blacklist.length */\n      swap1\n      pop\n        /* \"ddos.sol\":678:768  function getLength() public view returns (uint) {... */\n      swap1\n      jump\t// out\n        /* \"ddos.sol\":289:476  function addIP(string memory ip, string memory reason) public {... */\n    tag_24:\n        /* \"ddos.sol\":362:371  blacklist */\n      0x00\n        /* \"ddos.sol\":377:411  Entry(ip, reason, block.timestamp) */\n      mload(0x40)\n      dup1\n      0x60\n      add\n      0x40\n      mstore\n      dup1\n        /* \"ddos.sol\":383:385  ip */\n      dup5\n        /* \"ddos.sol\":377:411  Entry(ip, reason, block.timestamp) */\n      dup2\n      mstore\n      0x20\n      add\n        /* \"ddos.sol\":387:393  reason */\n      dup4\n        /* \"ddos.sol\":377:411  Entry(ip, reason, block.timestamp) */\n      dup2\n      mstore\n      0x20\n      add\n        /* \"ddos.sol\":395:410  block.timestamp */\n      timestamp\n        /* \"ddos.sol\":377:411  Entry(ip, reason, block.timestamp) */\n      dup2\n      mstore\n      pop\n        /* \"ddos.sol\":362:412  blacklist.push(Entry(ip, reason, block.timestamp)) */\n      swap1\n      dup1\n      0x01\n      dup2\n      sload\n      add\n      dup1\n      dup3\n      sstore\n      dup1\n      swap2\n      pop\n      pop\n      0x01\n      swap1\n      sub\n      swap1\n      0x00\n      mstore\n      keccak256(0x00, 0x20)\n      swap1\n      0x03\n      mul\n      add\n      0x00\n      swap1\n      swap2\n      swap1\n      swap2\n      swap1\n      swap2\n      pop\n      0x00\n      dup3\n      add\n      mload\n      dup2\n      0x00\n      add\n      swap1\n      dup2\n      tag_56\n      swap2\n      swap1\n      tag_57\n      jump\t// in\n    tag_56:\n      pop\n      0x20\n      dup3\n      add\n      mload\n      dup2\n      0x01\n      add\n      swap1\n      dup2\n      tag_58\n      swap2\n      swap1\n      tag_57\n      jump\t// in\n    tag_58:\n      pop\n      0x40\n      dup3\n      add\n      mload\n      dup2\n      0x02\n      add\n      sstore\n      pop\n      pop\n        /* \"ddos.sol\":428:468  Blacklisted(ip, reason, block.timestamp) */\n      0x96e7d2471ca3eba2bd9f84779ecc4b4da4047b359435296ab027d0cb6df15f19\n        /* \"ddos.sol\":440:442  ip */\n      dup3\n        /* \"ddos.sol\":444:450  reason */\n      dup3\n        /* \"ddos.sol\":452:467  block.timestamp */\n      timestamp\n        /* \"ddos.sol\":428:468  Blacklisted(ip, reason, block.timestamp) */\n      mload(0x40)\n      tag_59\n      swap4\n      swap3\n      swap2\n      swap1\n      tag_12\n      jump\t// in\n    tag_59:\n      mload(0x40)\n      dup1\n      swap2\n      sub\n      swap1\n      log1\n        /* \"ddos.sol\":289:476  function addIP(string memory ip, string memory reason) public {... */\n      pop\n      pop\n      jump\t// out\n        /* \"#utility.yul\":7:82   */\n    tag_60:\n        /* \"#utility.yul\":40:46   */\n      0x00\n        /* \"#utility.yul\":73:75   */\n      0x40\n        /* \"#utility.yul\":67:76   */\n      mload\n        /* \"#utility.yul\":57:76   */\n      swap1\n      pop\n        /* \"#utility.yul\":7:82   */\n      swap1\n      jump\t// out\n        /* \"#utility.yul\":88:205   */\n    tag_61:\n        /* \"#utility.yul\":197:198   */\n      0x00\n        /* \"#utility.yul\":194:195   */\n      0x00\n        /* \"#utility.yul\":187:199   */\n      revert\n        /* \"#utility.yul\":211:328   */\n    tag_62:\n        /* \"#utility.yul\":320:321   */\n      0x00\n        /* \"#utility.yul\":317:318   */\n      0x00\n        /* \"#utility.yul\":310:322   */\n      revert\n        /* \"#utility.yul\":334:411   */\n    tag_63:\n        /* \"#utility.yul\":371:378   */\n      0x00\n        /* \"#utility.yul\":400:405   */\n      dup2\n        /* \"#utility.yul\":389:405   */\n      swap1\n      pop\n        /* \"#utility.yul\":334:411   */\n      swap2\n      swap1\n      pop\n      jump\t// out\n        /* \"#utility.yul\":417:539   */\n    tag_64:\n        /* \"#utility.yul\":490:514   */\n      tag_103\n        /* \"#utility.yul\":508:513   */\n      dup2\n        /* \"#utility.yul\":490:514   */\n      tag_63\n      jump\t// in\n    tag_103:\n        /* \"#utility.yul\":483:488   */\n      dup2\n        /* \"#utility.yul\":480:515   */\n      eq\n        /* \"#utility.yul\":470:533   */\n      tag_104\n      jumpi\n        /* \"#utility.yul\":529:530   */\n      0x00\n        /* \"#utility.yul\":526:527   */\n      0x00\n        /* \"#utility.yul\":519:531   */\n      revert\n        /* \"#utility.yul\":470:533   */\n    tag_104:\n        /* \"#utility.yul\":417:539   */\n      pop\n      jump\t// out\n        /* \"#utility.yul\":545:684   */\n    tag_65:\n        /* \"#utility.yul\":591:596   */\n      0x00\n        /* \"#utility.yul\":629:635   */\n      dup2\n        /* \"#utility.yul\":616:636   */\n      calldataload\n        /* \"#utility.yul\":607:636   */\n      swap1\n      pop\n        /* \"#utility.yul\":645:678   */\n      tag_106\n        /* \"#utility.yul\":672:677   */\n      dup2\n        /* \"#utility.yul\":645:678   */\n      tag_64\n      jump\t// in\n    tag_106:\n        /* \"#utility.yul\":545:684   */\n      swap3\n      swap2\n      pop\n      pop\n      jump\t// out\n        /* \"#utility.yul\":690:1019   */\n    tag_9:\n        /* \"#utility.yul\":749:755   */\n      0x00\n        /* \"#utility.yul\":798:800   */\n      0x20\n        /* \"#utility.yul\":786:795   */\n      dup3\n        /* \"#utility.yul\":777:784   */\n      dup5\n        /* \"#utility.yul\":773:796   */\n      sub\n        /* \"#utility.yul\":769:801   */\n      slt\n        /* \"#utility.yul\":766:885   */\n      iszero\n      tag_108\n      jumpi\n        /* \"#utility.yul\":804:883   */\n      tag_109\n      tag_61\n      jump\t// in\n    tag_109:\n        /* \"#utility.yul\":766:885   */\n    tag_108:\n        /* \"#utility.yul\":924:925   */\n      0x00\n        /* \"#utility.yul\":949:1002   */\n      tag_110\n        /* \"#utility.yul\":994:1001   */\n      dup5\n        /* \"#utility.yul\":985:991   */\n      dup3\n        /* \"#utility.yul\":974:983   */\n      dup6\n        /* \"#utility.yul\":970:992   */\n      add\n        /* \"#utility.yul\":949:1002   */\n      tag_65\n      jump\t// in\n    tag_110:\n        /* \"#utility.yul\":939:1002   */\n      swap2\n      pop\n        /* \"#utility.yul\":895:1012   */\n      pop\n        /* \"#utility.yul\":690:1019   */\n      swap3\n      swap2\n      pop\n      pop\n      jump\t// out\n        /* \"#utility.yul\":1025:1124   */\n    tag_66:\n        /* \"#utility.yul\":1077:1083   */\n      0x00\n        /* \"#utility.yul\":1111:1116   */\n      dup2\n        /* \"#utility.yul\":1105:1117   */\n      mload\n        /* \"#utility.yul\":1095:1117   */\n      swap1\n      pop\n        /* \"#utility.yul\":1025:1124   */\n      swap2\n      swap1\n      pop\n      jump\t// out\n        /* \"#utility.yul\":1130:1299   */\n    tag_67:\n        /* \"#utility.yul\":1214:1225   */\n      0x00\n        /* \"#utility.yul\":1248:1254   */\n      dup3\n        /* \"#utility.yul\":1243:1246   */\n      dup3\n        /* \"#utility.yul\":1236:1255   */\n      mstore\n        /* \"#utility.yul\":1288:1292   */\n      0x20\n        /* \"#utility.yul\":1283:1286   */\n      dup3\n        /* \"#utility.yul\":1279:1293   */\n      add\n        /* \"#utility.yul\":1264:1293   */\n      swap1\n      pop\n        /* \"#utility.yul\":1130:1299   */\n      swap3\n      swap2\n      pop\n      pop\n      jump\t// out\n        /* \"#utility.yul\":1305:1444   */\n    tag_68:\n        /* \"#utility.yul\":1394:1400   */\n      dup3\n        /* \"#utility.yul\":1389:1392   */\n      dup2\n        /* \"#utility.yul\":1384:1387   */\n      dup4\n        /* \"#utility.yul\":1378:1401   */\n      mcopy\n        /* \"#utility.yul\":1435:1436   */\n      0x00\n        /* \"#utility.yul\":1426:1432   */\n      dup4\n        /* \"#utility.yul\":1421:1424   */\n      dup4\n        /* \"#utility.yul\":1417:1433   */\n      add\n        /* \"#utility.yul\":1410:1437   */\n      mstore\n        /* \"#utility.yul\":1305:1444   */\n      pop\n      pop\n      pop\n      jump\t// out\n        /* \"#utility.yul\":1450:1552   */\n    tag_69:\n        /* \"#utility.yul\":1491:1497   */\n      0x00\n        /* \"#utility.yul\":1542:1544   */\n      0x1f\n        /* \"#utility.yul\":1538:1545   */\n      not\n        /* \"#utility.yul\":1533:1535   */\n      0x1f\n        /* \"#utility.yul\":1526:1531   */\n      dup4\n        /* \"#utility.yul\":1522:1536   */\n      add\n        /* \"#utility.yul\":1518:1546   */\n      and\n        /* \"#utility.yul\":1508:1546   */\n      swap1\n      pop\n        /* \"#utility.yul\":1450:1552   */\n      swap2\n      swap1\n      pop\n      jump\t// out\n        /* \"#utility.yul\":1558:1935   */\n    tag_70:\n        /* \"#utility.yul\":1646:1649   */\n      0x00\n        /* \"#utility.yul\":1674:1713   */\n      tag_116\n        /* \"#utility.yul\":1707:1712   */\n      dup3\n        /* \"#utility.yul\":1674:1713   */\n      tag_66\n      jump\t// in\n    tag_116:\n        /* \"#utility.yul\":1729:1800   */\n      tag_117\n        /* \"#utility.yul\":1793:1799   */\n      dup2\n        /* \"#utility.yul\":1788:1791   */\n      dup6\n        /* \"#utility.yul\":1729:1800   */\n      tag_67\n      jump\t// in\n    tag_117:\n        /* \"#utility.yul\":1722:1800   */\n      swap4\n      pop\n        /* \"#utility.yul\":1809:1874   */\n      tag_118\n        /* \"#utility.yul\":1867:1873   */\n      dup2\n        /* \"#utility.yul\":1862:1865   */\n      dup6\n        /* \"#utility.yul\":1855:1859   */\n      0x20\n        /* \"#utility.yul\":1848:1853   */\n      dup7\n        /* \"#utility.yul\":1844:1860   */\n      add\n        /* \"#utility.yul\":1809:1874   */\n      tag_68\n      jump\t// in\n    tag_118:\n        /* \"#utility.yul\":1899:1928   */\n      tag_119\n        /* \"#utility.yul\":1921:1927   */\n      dup2\n        /* \"#utility.yul\":1899:1928   */\n      tag_69\n      jump\t// in\n    tag_119:\n        /* \"#utility.yul\":1894:1897   */\n      dup5\n        /* \"#utility.yul\":1890:1929   */\n      add\n        /* \"#utility.yul\":1883:1929   */\n      swap2\n      pop\n        /* \"#utility.yul\":1650:1935   */\n      pop\n        /* \"#utility.yul\":1558:1935   */\n      swap3\n      swap2\n      pop\n      pop\n      jump\t// out\n        /* \"#utility.yul\":1941:2059   */\n    tag_71:\n        /* \"#utility.yul\":2028:2052   */\n      tag_121\n        /* \"#utility.yul\":2046:2051   */\n      dup2\n        /* \"#utility.yul\":2028:2052   */\n      tag_63\n      jump\t// in\n    tag_121:\n        /* \"#utility.yul\":2023:2026   */\n      dup3\n        /* \"#utility.yul\":2016:2053   */\n      mstore\n        /* \"#utility.yul\":1941:2059   */\n      pop\n      pop\n      jump\t// out\n        /* \"#utility.yul\":2065:2689   */\n    tag_12:\n        /* \"#utility.yul\":2254:2258   */\n      0x00\n        /* \"#utility.yul\":2292:2294   */\n      0x60\n        /* \"#utility.yul\":2281:2290   */\n      dup3\n        /* \"#utility.yul\":2277:2295   */\n      add\n        /* \"#utility.yul\":2269:2295   */\n      swap1\n      pop\n        /* \"#utility.yul\":2341:2350   */\n      dup2\n        /* \"#utility.yul\":2335:2339   */\n      dup2\n        /* \"#utility.yul\":2331:2351   */\n      sub\n        /* \"#utility.yul\":2327:2328   */\n      0x00\n        /* \"#utility.yul\":2316:2325   */\n      dup4\n        /* \"#utility.yul\":2312:2329   */\n      add\n        /* \"#utility.yul\":2305:2352   */\n      mstore\n        /* \"#utility.yul\":2369:2447   */\n      tag_123\n        /* \"#utility.yul\":2442:2446   */\n      dup2\n        /* \"#utility.yul\":2433:2439   */\n      dup7\n        /* \"#utility.yul\":2369:2447   */\n      tag_70\n      jump\t// in\n    tag_123:\n        /* \"#utility.yul\":2361:2447   */\n      swap1\n      pop\n        /* \"#utility.yul\":2494:2503   */\n      dup2\n        /* \"#utility.yul\":2488:2492   */\n      dup2\n        /* \"#utility.yul\":2484:2504   */\n      sub\n        /* \"#utility.yul\":2479:2481   */\n      0x20\n        /* \"#utility.yul\":2468:2477   */\n      dup4\n        /* \"#utility.yul\":2464:2482   */\n      add\n        /* \"#utility.yul\":2457:2505   */\n      mstore\n        /* \"#utility.yul\":2522:2600   */\n      tag_124\n        /* \"#utility.yul\":2595:2599   */\n      dup2\n        /* \"#utility.yul\":2586:2592   */\n      dup6\n        /* \"#utility.yul\":2522:2600   */\n      tag_70\n      jump\t// in\n    tag_124:\n        /* \"#utility.yul\":2514:2600   */\n      swap1\n      pop\n        /* \"#utility.yul\":2610:2682   */\n      tag_125\n        /* \"#utility.yul\":2678:2680   */\n      0x40\n        /* \"#utility.yul\":2667:2676   */\n      dup4\n        /* \"#utility.yul\":2663:2681   */\n      add\n        /* \"#utility.yul\":2654:2660   */\n      dup5\n        /* \"#utility.yul\":2610:2682   */\n      tag_71\n      jump\t// in\n    tag_125:\n        /* \"#utility.yul\":2065:2689   */\n      swap5\n      swap4\n      pop\n      pop\n      pop\n      pop\n      jump\t// out\n        /* \"#utility.yul\":2695:2917   */\n    tag_20:\n        /* \"#utility.yul\":2788:2792   */\n      0x00\n        /* \"#utility.yul\":2826:2828   */\n      0x20\n        /* \"#utility.yul\":2815:2824   */\n      dup3\n        /* \"#utility.yul\":2811:2829   */\n      add\n        /* \"#utility.yul\":2803:2829   */\n      swap1\n      pop\n        /* \"#utility.yul\":2839:2910   */\n      tag_127\n        /* \"#utility.yul\":2907:2908   */\n      0x00\n        /* \"#utility.yul\":2896:2905   */\n      dup4\n        /* \"#utility.yul\":2892:2909   */\n      add\n        /* \"#utility.yul\":2883:2889   */\n      dup5\n        /* \"#utility.yul\":2839:2910   */\n      tag_71\n      jump\t// in\n    tag_127:\n        /* \"#utility.yul\":2695:2917   */\n      swap3\n      swap2\n      pop\n      pop\n      jump\t// out\n        /* \"#utility.yul\":2923:3040   */\n    tag_72:\n        /* \"#utility.yul\":3032:3033   */\n      0x00\n        /* \"#utility.yul\":3029:3030   */\n      0x00\n        /* \"#utility.yul\":3022:3034   */\n      revert\n        /* \"#utility.yul\":3046:3163   */\n    tag_73:\n        /* \"#utility.yul\":3155:3156   */\n      0x00\n        /* \"#utility.yul\":3152:3153   */\n      0x00\n        /* \"#utility.yul\":3145:3157   */\n      revert\n        /* \"#utility.yul\":3169:3349   */\n    tag_74:\n        /* \"#utility.yul\":3217:3294   */\n      0x4e487b7100000000000000000000000000000000000000000000000000000000\n        /* \"#utility.yul\":3214:3215   */\n      0x00\n        /* \"#utility.yul\":3207:3295   */\n      mstore\n        /* \"#utility.yul\":3314:3318   */\n      0x41\n        /* \"#utility.yul\":3311:3312   */\n      0x04\n        /* \"#utility.yul\":3304:3319   */\n      mstore\n        /* \"#utility.yul\":3338:3342   */\n      0x24\n        /* \"#utility.yul\":3335:3336   */\n      0x00\n        /* \"#utility.yul\":3328:3343   */\n      revert\n        /* \"#utility.yul\":3355:3636   */\n    tag_75:\n        /* \"#utility.yul\":3438:3465   */\n      tag_132\n        /* \"#utility.yul\":3460:3464   */\n      dup3\n        /* \"#utility.yul\":3438:3465   */\n      tag_69\n      jump\t// in\n    tag_132:\n        /* \"#utility.yul\":3430:3436   */\n      dup2\n        /* \"#utility.yul\":3426:3466   */\n      add\n        /* \"#utility.yul\":3568:3574   */\n      dup2\n        /* \"#utility.yul\":3556:3566   */\n      dup2\n        /* \"#utility.yul\":3553:3575   */\n      lt\n        /* \"#utility.yul\":3532:3550   */\n      0xffffffffffffffff\n        /* \"#utility.yul\":3520:3530   */\n      dup3\n        /* \"#utility.yul\":3517:3551   */\n      gt\n        /* \"#utility.yul\":3514:3576   */\n      or\n        /* \"#utility.yul\":3511:3599   */\n      iszero\n      tag_133\n      jumpi\n        /* \"#utility.yul\":3579:3597   */\n      tag_134\n      tag_74\n      jump\t// in\n    tag_134:\n        /* \"#utility.yul\":3511:3599   */\n    tag_133:\n        /* \"#utility.yul\":3619:3629   */\n      dup1\n        /* \"#utility.yul\":3615:3617   */\n      0x40\n        /* \"#utility.yul\":3608:3630   */\n      mstore\n        /* \"#utility.yul\":3398:3636   */\n      pop\n        /* \"#utility.yul\":3355:3636   */\n      pop\n      pop\n      jump\t// out\n        /* \"#utility.yul\":3642:3771   */\n    tag_76:\n        /* \"#utility.yul\":3676:3682   */\n      0x00\n        /* \"#utility.yul\":3703:3723   */\n      tag_136\n      tag_60\n      jump\t// in\n    tag_136:\n        /* \"#utility.yul\":3693:3723   */\n      swap1\n      pop\n        /* \"#utility.yul\":3732:3765   */\n      tag_137\n        /* \"#utility.yul\":3760:3764   */\n      dup3\n        /* \"#utility.yul\":3752:3758   */\n      dup3\n        /* \"#utility.yul\":3732:3765   */\n      tag_75\n      jump\t// in\n    tag_137:\n        /* \"#utility.yul\":3642:3771   */\n      swap2\n      swap1\n      pop\n      jump\t// out\n        /* \"#utility.yul\":3777:4085   */\n    tag_77:\n        /* \"#utility.yul\":3839:3843   */\n      0x00\n        /* \"#utility.yul\":3929:3947   */\n      0xffffffffffffffff\n        /* \"#utility.yul\":3921:3927   */\n      dup3\n        /* \"#utility.yul\":3918:3948   */\n      gt\n        /* \"#utility.yul\":3915:3971   */\n      iszero\n      tag_139\n      jumpi\n        /* \"#utility.yul\":3951:3969   */\n      tag_140\n      tag_74\n      jump\t// in\n    tag_140:\n        /* \"#utility.yul\":3915:3971   */\n    tag_139:\n        /* \"#utility.yul\":3989:4018   */\n      tag_141\n        /* \"#utility.yul\":4011:4017   */\n      dup3\n        /* \"#utility.yul\":3989:4018   */\n      tag_69\n      jump\t// in\n    tag_141:\n        /* \"#utility.yul\":3981:4018   */\n      swap1\n      pop\n        /* \"#utility.yul\":4073:4077   */\n      0x20\n        /* \"#utility.yul\":4067:4071   */\n      dup2\n        /* \"#utility.yul\":4063:4078   */\n      add\n        /* \"#utility.yul\":4055:4078   */\n      swap1\n      pop\n        /* \"#utility.yul\":3777:4085   */\n      swap2\n      swap1\n      pop\n      jump\t// out\n        /* \"#utility.yul\":4091:4239   */\n    tag_78:\n        /* \"#utility.yul\":4189:4195   */\n      dup3\n        /* \"#utility.yul\":4184:4187   */\n      dup2\n        /* \"#utility.yul\":4179:4182   */\n      dup4\n        /* \"#utility.yul\":4166:4196   */\n      calldatacopy\n        /* \"#utility.yul\":4230:4231   */\n      0x00\n        /* \"#utility.yul\":4221:4227   */\n      dup4\n        /* \"#utility.yul\":4216:4219   */\n      dup4\n        /* \"#utility.yul\":4212:4228   */\n      add\n        /* \"#utility.yul\":4205:4232   */\n      mstore\n        /* \"#utility.yul\":4091:4239   */\n      pop\n      pop\n      pop\n      jump\t// out\n        /* \"#utility.yul\":4245:4670   */\n    tag_79:\n        /* \"#utility.yul\":4323:4328   */\n      0x00\n        /* \"#utility.yul\":4348:4414   */\n      tag_144\n        /* \"#utility.yul\":4364:4413   */\n      tag_145\n        /* \"#utility.yul\":4406:4412   */\n      dup5\n        /* \"#utility.yul\":4364:4413   */\n      tag_77\n      jump\t// in\n    tag_145:\n        /* \"#utility.yul\":4348:4414   */\n      tag_76\n      jump\t// in\n    tag_144:\n        /* \"#utility.yul\":4339:4414   */\n      swap1\n      pop\n        /* \"#utility.yul\":4437:4443   */\n      dup3\n        /* \"#utility.yul\":4430:4435   */\n      dup2\n        /* \"#utility.yul\":4423:4444   */\n      mstore\n        /* \"#utility.yul\":4475:4479   */\n      0x20\n        /* \"#utility.yul\":4468:4473   */\n      dup2\n        /* \"#utility.yul\":4464:4480   */\n      add\n        /* \"#utility.yul\":4513:4516   */\n      dup5\n        /* \"#utility.yul\":4504:4510   */\n      dup5\n        /* \"#utility.yul\":4499:4502   */\n      dup5\n        /* \"#utility.yul\":4495:4511   */\n      add\n        /* \"#utility.yul\":4492:4517   */\n      gt\n        /* \"#utility.yul\":4489:4601   */\n      iszero\n      tag_146\n      jumpi\n        /* \"#utility.yul\":4520:4599   */\n      tag_147\n      tag_73\n      jump\t// in\n    tag_147:\n        /* \"#utility.yul\":4489:4601   */\n    tag_146:\n        /* \"#utility.yul\":4610:4664   */\n      tag_148\n        /* \"#utility.yul\":4657:4663   */\n      dup5\n        /* \"#utility.yul\":4652:4655   */\n      dup3\n        /* \"#utility.yul\":4647:4650   */\n      dup6\n        /* \"#utility.yul\":4610:4664   */\n      tag_78\n      jump\t// in\n    tag_148:\n        /* \"#utility.yul\":4329:4670   */\n      pop\n        /* \"#utility.yul\":4245:4670   */\n      swap4\n      swap3\n      pop\n      pop\n      pop\n      jump\t// out\n        /* \"#utility.yul\":4690:5030   */\n    tag_80:\n        /* \"#utility.yul\":4746:4751   */\n      0x00\n        /* \"#utility.yul\":4795:4798   */\n      dup3\n        /* \"#utility.yul\":4788:4792   */\n      0x1f\n        /* \"#utility.yul\":4780:4786   */\n      dup4\n        /* \"#utility.yul\":4776:4793   */\n      add\n        /* \"#utility.yul\":4772:4799   */\n      slt\n        /* \"#utility.yul\":4762:4884   */\n      tag_150\n      jumpi\n        /* \"#utility.yul\":4803:4882   */\n      tag_151\n      tag_72\n      jump\t// in\n    tag_151:\n        /* \"#utility.yul\":4762:4884   */\n    tag_150:\n        /* \"#utility.yul\":4920:4926   */\n      dup2\n        /* \"#utility.yul\":4907:4927   */\n      calldataload\n        /* \"#utility.yul\":4945:5024   */\n      tag_152\n        /* \"#utility.yul\":5020:5023   */\n      dup5\n        /* \"#utility.yul\":5012:5018   */\n      dup3\n        /* \"#utility.yul\":5005:5009   */\n      0x20\n        /* \"#utility.yul\":4997:5003   */\n      dup7\n        /* \"#utility.yul\":4993:5010   */\n      add\n        /* \"#utility.yul\":4945:5024   */\n      tag_79\n      jump\t// in\n    tag_152:\n        /* \"#utility.yul\":4936:5024   */\n      swap2\n      pop\n        /* \"#utility.yul\":4752:5030   */\n      pop\n        /* \"#utility.yul\":4690:5030   */\n      swap3\n      swap2\n      pop\n      pop\n      jump\t// out\n        /* \"#utility.yul\":5036:5870   */\n    tag_23:\n        /* \"#utility.yul\":5124:5130   */\n      0x00\n        /* \"#utility.yul\":5132:5138   */\n      0x00\n        /* \"#utility.yul\":5181:5183   */\n      0x40\n        /* \"#utility.yul\":5169:5178   */\n      dup4\n        /* \"#utility.yul\":5160:5167   */\n      dup6\n        /* \"#utility.yul\":5156:5179   */\n      sub\n        /* \"#utility.yul\":5152:5184   */\n      slt\n        /* \"#utility.yul\":5149:5268   */\n      iszero\n      tag_154\n      jumpi\n        /* \"#utility.yul\":5187:5266   */\n      tag_155\n      tag_61\n      jump\t// in\n    tag_155:\n        /* \"#utility.yul\":5149:5268   */\n    tag_154:\n        /* \"#utility.yul\":5335:5336   */\n      0x00\n        /* \"#utility.yul\":5324:5333   */\n      dup4\n        /* \"#utility.yul\":5320:5337   */\n      add\n        /* \"#utility.yul\":5307:5338   */\n      calldataload\n        /* \"#utility.yul\":5365:5383   */\n      0xffffffffffffffff\n        /* \"#utility.yul\":5357:5363   */\n      dup2\n        /* \"#utility.yul\":5354:5384   */\n      gt\n        /* \"#utility.yul\":5351:5468   */\n      iszero\n      tag_156\n      jumpi\n        /* \"#utility.yul\":5387:5466   */\n      tag_157\n      tag_62\n      jump\t// in\n    tag_157:\n        /* \"#utility.yul\":5351:5468   */\n    tag_156:\n        /* \"#utility.yul\":5492:5555   */\n      tag_158\n        /* \"#utility.yul\":5547:5554   */\n      dup6\n        /* \"#utility.yul\":5538:5544   */\n      dup3\n        /* \"#utility.yul\":5527:5536   */\n      dup7\n        /* \"#utility.yul\":5523:5545   */\n      add\n        /* \"#utility.yul\":5492:5555   */\n      tag_80\n      jump\t// in\n    tag_158:\n        /* \"#utility.yul\":5482:5555   */\n      swap3\n      pop\n        /* \"#utility.yul\":5278:5565   */\n      pop\n        /* \"#utility.yul\":5632:5634   */\n      0x20\n        /* \"#utility.yul\":5621:5630   */\n      dup4\n        /* \"#utility.yul\":5617:5635   */\n      add\n        /* \"#utility.yul\":5604:5636   */\n      calldataload\n        /* \"#utility.yul\":5663:5681   */\n      0xffffffffffffffff\n        /* \"#utility.yul\":5655:5661   */\n      dup2\n        /* \"#utility.yul\":5652:5682   */\n      gt\n        /* \"#utility.yul\":5649:5766   */\n      iszero\n      tag_159\n      jumpi\n        /* \"#utility.yul\":5685:5764   */\n      tag_160\n      tag_62\n      jump\t// in\n    tag_160:\n        /* \"#utility.yul\":5649:5766   */\n    tag_159:\n        /* \"#utility.yul\":5790:5853   */\n      tag_161\n        /* \"#utility.yul\":5845:5852   */\n      dup6\n        /* \"#utility.yul\":5836:5842   */\n      dup3\n        /* \"#utility.yul\":5825:5834   */\n      dup7\n        /* \"#utility.yul\":5821:5843   */\n      add\n        /* \"#utility.yul\":5790:5853   */\n      tag_80\n      jump\t// in\n    tag_161:\n        /* \"#utility.yul\":5780:5853   */\n      swap2\n      pop\n        /* \"#utility.yul\":5575:5863   */\n      pop\n        /* \"#utility.yul\":5036:5870   */\n      swap3\n      pop\n      swap3\n      swap1\n      pop\n      jump\t// out\n        /* \"#utility.yul\":5876:6056   */\n    tag_81:\n        /* \"#utility.yul\":5924:6001   */\n      0x4e487b7100000000000000000000000000000000000000000000000000000000\n        /* \"#utility.yul\":5921:5922   */\n      0x00\n        /* \"#utility.yul\":5914:6002   */\n      mstore\n        /* \"#utility.yul\":6021:6025   */\n      0x22\n        /* \"#utility.yul\":6018:6019   */\n      0x04\n        /* \"#utility.yul\":6011:6026   */\n      mstore\n        /* \"#utility.yul\":6045:6049   */\n      0x24\n        /* \"#utility.yul\":6042:6043   */\n      0x00\n        /* \"#utility.yul\":6035:6050   */\n      revert\n        /* \"#utility.yul\":6062:6382   */\n    tag_28:\n        /* \"#utility.yul\":6106:6112   */\n      0x00\n        /* \"#utility.yul\":6143:6144   */\n      0x02\n        /* \"#utility.yul\":6137:6141   */\n      dup3\n        /* \"#utility.yul\":6133:6145   */\n      div\n        /* \"#utility.yul\":6123:6145   */\n      swap1\n      pop\n        /* \"#utility.yul\":6190:6191   */\n      0x01\n        /* \"#utility.yul\":6184:6188   */\n      dup3\n        /* \"#utility.yul\":6180:6192   */\n      and\n        /* \"#utility.yul\":6211:6229   */\n      dup1\n        /* \"#utility.yul\":6201:6282   */\n      tag_164\n      jumpi\n        /* \"#utility.yul\":6267:6271   */\n      0x7f\n        /* \"#utility.yul\":6259:6265   */\n      dup3\n        /* \"#utility.yul\":6255:6272   */\n      and\n        /* \"#utility.yul\":6245:6272   */\n      swap2\n      pop\n        /* \"#utility.yul\":6201:6282   */\n    tag_164:\n        /* \"#utility.yul\":6329:6331   */\n      0x20\n        /* \"#utility.yul\":6321:6327   */\n      dup3\n        /* \"#utility.yul\":6318:6332   */\n      lt\n        /* \"#utility.yul\":6298:6316   */\n      dup2\n        /* \"#utility.yul\":6295:6333   */\n      sub\n        /* \"#utility.yul\":6292:6376   */\n      tag_165\n      jumpi\n        /* \"#utility.yul\":6348:6366   */\n      tag_166\n      tag_81\n      jump\t// in\n    tag_166:\n        /* \"#utility.yul\":6292:6376   */\n    tag_165:\n        /* \"#utility.yul\":6113:6382   */\n      pop\n        /* \"#utility.yul\":6062:6382   */\n      swap2\n      swap1\n      pop\n      jump\t// out\n        /* \"#utility.yul\":6388:6568   */\n    tag_41:\n        /* \"#utility.yul\":6436:6513   */\n      0x4e487b7100000000000000000000000000000000000000000000000000000000\n        /* \"#utility.yul\":6433:6434   */\n      0x00\n        /* \"#utility.yul\":6426:6514   */\n      mstore\n        /* \"#utility.yul\":6533:6537   */\n      0x32\n        /* \"#utility.yul\":6530:6531   */\n      0x04\n        /* \"#utility.yul\":6523:6538   */\n      mstore\n        /* \"#utility.yul\":6557:6561   */\n      0x24\n        /* \"#utility.yul\":6554:6555   */\n      0x00\n        /* \"#utility.yul\":6547:6562   */\n      revert\n        /* \"#utility.yul\":6574:6715   */\n    tag_82:\n        /* \"#utility.yul\":6623:6627   */\n      0x00\n        /* \"#utility.yul\":6646:6649   */\n      dup2\n        /* \"#utility.yul\":6638:6649   */\n      swap1\n      pop\n        /* \"#utility.yul\":6669:6672   */\n      dup2\n        /* \"#utility.yul\":6666:6667   */\n      0x00\n        /* \"#utility.yul\":6659:6673   */\n      mstore\n        /* \"#utility.yul\":6703:6707   */\n      0x20\n        /* \"#utility.yul\":6700:6701   */\n      0x00\n        /* \"#utility.yul\":6690:6708   */\n      keccak256\n        /* \"#utility.yul\":6682:6708   */\n      swap1\n      pop\n        /* \"#utility.yul\":6574:6715   */\n      swap2\n      swap1\n      pop\n      jump\t// out\n        /* \"#utility.yul\":6721:6814   */\n    tag_83:\n        /* \"#utility.yul\":6758:6764   */\n      0x00\n        /* \"#utility.yul\":6805:6807   */\n      0x20\n        /* \"#utility.yul\":6800:6802   */\n      0x1f\n        /* \"#utility.yul\":6793:6798   */\n      dup4\n        /* \"#utility.yul\":6789:6803   */\n      add\n        /* \"#utility.yul\":6785:6808   */\n      div\n        /* \"#utility.yul\":6775:6808   */\n      swap1\n      pop\n        /* \"#utility.yul\":6721:6814   */\n      swap2\n      swap1\n      pop\n      jump\t// out\n        /* \"#utility.yul\":6820:6927   */\n    tag_84:\n        /* \"#utility.yul\":6864:6872   */\n      0x00\n        /* \"#utility.yul\":6914:6919   */\n      dup3\n        /* \"#utility.yul\":6908:6912   */\n      dup3\n        /* \"#utility.yul\":6904:6920   */\n      shl\n        /* \"#utility.yul\":6883:6920   */\n      swap1\n      pop\n        /* \"#utility.yul\":6820:6927   */\n      swap3\n      swap2\n      pop\n      pop\n      jump\t// out\n        /* \"#utility.yul\":6933:7326   */\n    tag_85:\n        /* \"#utility.yul\":7002:7008   */\n      0x00\n        /* \"#utility.yul\":7052:7053   */\n      0x08\n        /* \"#utility.yul\":7040:7050   */\n      dup4\n        /* \"#utility.yul\":7036:7054   */\n      mul\n        /* \"#utility.yul\":7075:7172   */\n      tag_172\n        /* \"#utility.yul\":7105:7171   */\n      0xffffffffffffffffffffffffffffffffffffffffffffffffffffffffffffffff\n        /* \"#utility.yul\":7094:7103   */\n      dup3\n        /* \"#utility.yul\":7075:7172   */\n      tag_84\n      jump\t// in\n    tag_172:\n        /* \"#utility.yul\":7193:7232   */\n      tag_173\n        /* \"#utility.yul\":7223:7231   */\n      dup7\n        /* \"#utility.yul\":7212:7221   */\n      dup4\n        /* \"#utility.yul\":7193:7232   */\n      tag_84\n      jump\t// in\n    tag_173:\n        /* \"#utility.yul\":7181:7232   */\n      swap6\n      pop\n        /* \"#utility.yul\":7265:7269   */\n      dup1\n        /* \"#utility.yul\":7261:7270   */\n      not\n        /* \"#utility.yul\":7254:7259   */\n      dup5\n        /* \"#utility.yul\":7250:7271   */\n      and\n        /* \"#utility.yul\":7241:7271   */\n      swap4\n      pop\n        /* \"#utility.yul\":7314:7318   */\n      dup1\n        /* \"#utility.yul\":7304:7312   */\n      dup7\n        /* \"#utility.yul\":7300:7319   */\n      and\n        /* \"#utility.yul\":7293:7298   */\n      dup5\n        /* \"#utility.yul\":7290:7320   */\n      or\n        /* \"#utility.yul\":7280:7320   */\n      swap3\n      pop\n        /* \"#utility.yul\":7009:7326   */\n      pop\n      pop\n        /* \"#utility.yul\":6933:7326   */\n      swap4\n      swap3\n      pop\n      pop\n      pop\n      jump\t// out\n        /* \"#utility.yul\":7332:7392   */\n    tag_86:\n        /* \"#utility.yul\":7360:7363   */\n      0x00\n        /* \"#utility.yul\":7381:7386   */\n      dup2\n        /* \"#utility.yul\":7374:7386   */\n      swap1\n      pop\n        /* \"#utility.yul\":7332:7392   */\n      swap2\n      swap1\n      pop\n      jump\t// out\n        /* \"#utility.yul\":7398:7540   */\n    tag_87:\n        /* \"#utility.yul\":7448:7457   */\n      0x00\n        /* \"#utility.yul\":7481:7534   */\n      tag_176\n        /* \"#utility.yul\":7499:7533   */\n      tag_177\n        /* \"#utility.yul\":7508:7532   */\n      tag_178\n        /* \"#utility.yul\":7526:7531   */\n      dup5\n        /* \"#utility.yul\":7508:7532   */\n      tag_63\n      jump\t// in\n    tag_178:\n        /* \"#utility.yul\":7499:7533   */\n      tag_86\n      jump\t// in\n    tag_177:\n        /* \"#utility.yul\":7481:7534   */\n      tag_63\n      jump\t// in\n    tag_176:\n        /* \"#utility.yul\":7468:7534   */\n      swap1\n      pop\n        /* \"#utility.yul\":7398:7540   */\n      swap2\n      swap1\n      pop\n      jump\t// out\n        /* \"#utility.yul\":7546:7621   */\n    tag_88:\n        /* \"#utility.yul\":7589:7592   */\n      0x00\n        /* \"#utility.yul\":7610:7615   */\n      dup2\n        /* \"#utility.yul\":7603:7615   */\n      swap1\n      pop\n        /* \"#utility.yul\":7546:7621   */\n      swap2\n      swap1\n      pop\n      jump\t// out\n        /* \"#utility.yul\":7627:7896   */\n    tag_89:\n        /* \"#utility.yul\":7737:7776   */\n      tag_181\n        /* \"#utility.yul\":7768:7775   */\n      dup4\n        /* \"#utility.yul\":7737:7776   */\n      tag_87\n      jump\t// in\n    tag_181:\n        /* \"#utility.yul\":7798:7889   */\n      tag_182\n        /* \"#utility.yul\":7847:7888   */\n      tag_183\n        /* \"#utility.yul\":7871:7887   */\n      dup3\n        /* \"#utility.yul\":7847:7888   */\n      tag_88\n      jump\t// in\n    tag_183:\n        /* \"#utility.yul\":7839:7845   */\n      dup5\n        /* \"#utility.yul\":7832:7836   */\n      dup5\n        /* \"#utility.yul\":7826:7837   */\n      sload\n        /* \"#utility.yul\":7798:7889   */\n      tag_85\n      jump\t// in\n    tag_182:\n        /* \"#utility.yul\":7792:7796   */\n      dup3\n        /* \"#utility.yul\":7785:7890   */\n      sstore\n        /* \"#utility.yul\":7703:7896   */\n      pop\n        /* \"#utility.yul\":7627:7896   */\n      pop\n      pop\n      pop\n      jump\t// out\n        /* \"#utility.yul\":7902:7975   */\n    tag_90:\n        /* \"#utility.yul\":7947:7950   */\n      0x00\n        /* \"#utility.yul\":7968:7969   */\n      0x00\n        /* \"#utility.yul\":7961:7969   */\n      swap1\n      pop\n        /* \"#utility.yul\":7902:7975   */\n      swap1\n      jump\t// out\n        /* \"#utility.yul\":7981:8170   */\n    tag_91:\n        /* \"#utility.yul\":8058:8090   */\n      tag_186\n      tag_90\n      jump\t// in\n    tag_186:\n        /* \"#utility.yul\":8099:8164   */\n      tag_187\n        /* \"#utility.yul\":8157:8163   */\n      dup2\n        /* \"#utility.yul\":8149:8155   */\n      dup5\n        /* \"#utility.yul\":8143:8147   */\n      dup5\n        /* \"#utility.yul\":8099:8164   */\n      tag_89\n      jump\t// in\n    tag_187:\n        /* \"#utility.yul\":8034:8170   */\n      pop\n        /* \"#utility.yul\":7981:8170   */\n      pop\n      pop\n      jump\t// out\n        /* \"#utility.yul\":8176:8362   */\n    tag_92:\n        /* \"#utility.yul\":8236:8356   */\n    tag_189:\n        /* \"#utility.yul\":8253:8256   */\n      dup2\n        /* \"#utility.yul\":8246:8251   */\n      dup2\n        /* \"#utility.yul\":8243:8257   */\n      lt\n        /* \"#utility.yul\":8236:8356   */\n      iszero\n      tag_191\n      jumpi\n        /* \"#utility.yul\":8307:8346   */\n      tag_192\n        /* \"#utility.yul\":8344:8345   */\n      0x00\n        /* \"#utility.yul\":8337:8342   */\n      dup3\n        /* \"#utility.yul\":8307:8346   */\n      tag_91\n      jump\t// in\n    tag_192:\n        /* \"#utility.yul\":8280:8281   */\n      0x01\n        /* \"#utility.yul\":8273:8278   */\n      dup2\n        /* \"#utility.yul\":8269:8282   */\n      add\n        /* \"#utility.yul\":8260:8282   */\n      swap1\n      pop\n        /* \"#utility.yul\":8236:8356   */\n      jump(tag_189)\n    tag_191:\n        /* \"#utility.yul\":8176:8362   */\n      pop\n      pop\n      jump\t// out\n        /* \"#utility.yul\":8368:8911   */\n    tag_93:\n        /* \"#utility.yul\":8469:8471   */\n      0x1f\n        /* \"#utility.yul\":8464:8467   */\n      dup3\n        /* \"#utility.yul\":8461:8472   */\n      gt\n        /* \"#utility.yul\":8458:8904   */\n      iszero\n      tag_194\n      jumpi\n        /* \"#utility.yul\":8503:8541   */\n      tag_195\n        /* \"#utility.yul\":8535:8540   */\n      dup2\n        /* \"#utility.yul\":8503:8541   */\n      tag_82\n      jump\t// in\n    tag_195:\n        /* \"#utility.yul\":8587:8616   */\n      tag_196\n        /* \"#utility.yul\":8605:8615   */\n      dup5\n        /* \"#utility.yul\":8587:8616   */\n      tag_83\n      jump\t// in\n    tag_196:\n        /* \"#utility.yul\":8577:8585   */\n      dup2\n        /* \"#utility.yul\":8573:8617   */\n      add\n        /* \"#utility.yul\":8770:8772   */\n      0x20\n        /* \"#utility.yul\":8758:8768   */\n      dup6\n        /* \"#utility.yul\":8755:8773   */\n      lt\n        /* \"#utility.yul\":8752:8801   */\n      iszero\n      tag_197\n      jumpi\n        /* \"#utility.yul\":8791:8799   */\n      dup2\n        /* \"#utility.yul\":8776:8799   */\n      swap1\n      pop\n        /* \"#utility.yul\":8752:8801   */\n    tag_197:\n        /* \"#utility.yul\":8814:8894   */\n      tag_198\n        /* \"#utility.yul\":8870:8892   */\n      tag_199\n        /* \"#utility.yul\":8888:8891   */\n      dup6\n        /* \"#utility.yul\":8870:8892   */\n      tag_83\n      jump\t// in\n    tag_199:\n        /* \"#utility.yul\":8860:8868   */\n      dup4\n        /* \"#utility.yul\":8856:8893   */\n      add\n        /* \"#utility.yul\":8843:8854   */\n      dup3\n        /* \"#utility.yul\":8814:8894   */\n      tag_92\n      jump\t// in\n    tag_198:\n        /* \"#utility.yul\":8473:8904   */\n      pop\n      pop\n        /* \"#utility.yul\":8458:8904   */\n    tag_194:\n        /* \"#utility.yul\":8368:8911   */\n      pop\n      pop\n      pop\n      jump\t// out\n        /* \"#utility.yul\":8917:9034   */\n    tag_94:\n        /* \"#utility.yul\":8971:8979   */\n      0x00\n        /* \"#utility.yul\":9021:9026   */\n      dup3\n        /* \"#utility.yul\":9015:9019   */\n      dup3\n        /* \"#utility.yul\":9011:9027   */\n      shr\n        /* \"#utility.yul\":8990:9027   */\n      swap1\n      pop\n        /* \"#utility.yul\":8917:9034   */\n      swap3\n      swap2\n      pop\n      pop\n      jump\t// out\n        /* \"#utility.yul\":9040:9209   */\n    tag_95:\n        /* \"#utility.yul\":9084:9090   */\n      0x00\n        /* \"#utility.yul\":9117:9168   */\n      tag_202\n        /* \"#utility.yul\":9165:9166   */\n      0x00\n        /* \"#utility.yul\":9161:9167   */\n      not\n        /* \"#utility.yul\":9153:9158   */\n      dup5\n        /* \"#utility.yul\":9150:9151   */\n      0x08\n        /* \"#utility.yul\":9146:9159   */\n      mul\n        /* \"#utility.yul\":9117:9168   */\n      tag_94\n      jump\t// in\n    tag_202:\n        /* \"#utility.yul\":9113:9169   */\n      not\n        /* \"#utility.yul\":9198:9202   */\n      dup1\n        /* \"#utility.yul\":9192:9196   */\n      dup4\n        /* \"#utility.yul\":9188:9203   */\n      and\n        /* \"#utility.yul\":9178:9203   */\n      swap2\n      pop\n        /* \"#utility.yul\":9091:9209   */\n      pop\n        /* \"#utility.yul\":9040:9209   */\n      swap3\n      swap2\n      pop\n      pop\n      jump\t// out\n        /* \"#utility.yul\":9214:9509   */\n    tag_96:\n        /* \"#utility.yul\":9290:9294   */\n      0x00\n        /* \"#utility.yul\":9436:9465   */\n      tag_204\n        /* \"#utility.yul\":9461:9464   */\n      dup4\n        /* \"#utility.yul\":9455:9459   */\n      dup4\n        /* \"#utility.yul\":9436:9465   */\n      tag_95\n      jump\t// in\n    tag_204:\n        /* \"#utility.yul\":9428:9465   */\n      swap2\n      pop\n        /* \"#utility.yul\":9498:9501   */\n      dup3\n        /* \"#utility.yul\":9495:9496   */\n      0x02\n        /* \"#utility.yul\":9491:9502   */\n      mul\n        /* \"#utility.yul\":9485:9489   */\n      dup3\n        /* \"#utility.yul\":9482:9503   */\n      or\n        /* \"#utility.yul\":9474:9503   */\n      swap1\n      pop\n        /* \"#utility.yul\":9214:9509   */\n      swap3\n      swap2\n      pop\n      pop\n      jump\t// out\n        /* \"#utility.yul\":9514:10909   */\n    tag_57:\n        /* \"#utility.yul\":9631:9668   */\n      tag_206\n        /* \"#utility.yul\":9664:9667   */\n      dup3\n        /* \"#utility.yul\":9631:9668   */\n      tag_66\n      jump\t// in\n    tag_206:\n        /* \"#utility.yul\":9733:9751   */\n      0xffffffffffffffff\n        /* \"#utility.yul\":9725:9731   */\n      dup2\n        /* \"#utility.yul\":9722:9752   */\n      gt\n        /* \"#utility.yul\":9719:9775   */\n      iszero\n      tag_207\n      jumpi\n        /* \"#utility.yul\":9755:9773   */\n      tag_208\n      tag_74\n      jump\t// in\n    tag_208:\n        /* \"#utility.yul\":9719:9775   */\n    tag_207:\n        /* \"#utility.yul\":9799:9837   */\n      tag_209\n        /* \"#utility.yul\":9831:9835   */\n      dup3\n        /* \"#utility.yul\":9825:9836   */\n      sload\n        /* \"#utility.yul\":9799:9837   */\n      tag_28\n      jump\t// in\n    tag_209:\n        /* \"#utility.yul\":9884:9951   */\n      tag_210\n        /* \"#utility.yul\":9944:9950   */\n      dup3\n        /* \"#utility.yul\":9936:9942   */\n      dup3\n        /* \"#utility.yul\":9930:9934   */\n      dup6\n        /* \"#utility.yul\":9884:9951   */\n      tag_93\n      jump\t// in\n    tag_210:\n        /* \"#utility.yul\":9978:9979   */\n      0x00\n        /* \"#utility.yul\":10002:10006   */\n      0x20\n        /* \"#utility.yul\":9989:10006   */\n      swap1\n      pop\n        /* \"#utility.yul\":10034:10036   */\n      0x1f\n        /* \"#utility.yul\":10026:10032   */\n      dup4\n        /* \"#utility.yul\":10023:10037   */\n      gt\n        /* \"#utility.yul\":10051:10052   */\n      0x01\n        /* \"#utility.yul\":10046:10664   */\n      dup2\n      eq\n      tag_212\n      jumpi\n        /* \"#utility.yul\":10708:10709   */\n      0x00\n        /* \"#utility.yul\":10725:10731   */\n      dup5\n        /* \"#utility.yul\":10722:10799   */\n      iszero\n      tag_213\n      jumpi\n        /* \"#utility.yul\":10774:10783   */\n      dup3\n        /* \"#utility.yul\":10769:10772   */\n      dup8\n        /* \"#utility.yul\":10765:10784   */\n      add\n        /* \"#utility.yul\":10759:10785   */\n      mload\n        /* \"#utility.yul\":10750:10785   */\n      swap1\n      pop\n        /* \"#utility.yul\":10722:10799   */\n    tag_213:\n        /* \"#utility.yul\":10825:10892   */\n      tag_214\n        /* \"#utility.yul\":10885:10891   */\n      dup6\n        /* \"#utility.yul\":10878:10883   */\n      dup3\n        /* \"#utility.yul\":10825:10892   */\n      tag_96\n      jump\t// in\n    tag_214:\n        /* \"#utility.yul\":10819:10823   */\n      dup7\n        /* \"#utility.yul\":10812:10893   */\n      sstore\n        /* \"#utility.yul\":10681:10903   */\n      pop\n        /* \"#utility.yul\":10016:10903   */\n      jump(tag_211)\n        /* \"#utility.yul\":10046:10664   */\n    tag_212:\n        /* \"#utility.yul\":10098:10102   */\n      0x1f\n        /* \"#utility.yul\":10094:10103   */\n      not\n        /* \"#utility.yul\":10086:10092   */\n      dup5\n        /* \"#utility.yul\":10082:10104   */\n      and\n        /* \"#utility.yul\":10132:10169   */\n      tag_215\n        /* \"#utility.yul\":10164:10168   */\n      dup7\n        /* \"#utility.yul\":10132:10169   */\n      tag_82\n      jump\t// in\n    tag_215:\n        /* \"#utility.yul\":10191:10192   */\n      0x00\n        /* \"#utility.yul\":10205:10413   */\n    tag_216:\n        /* \"#utility.yul\":10219:10226   */\n      dup3\n        /* \"#utility.yul\":10216:10217   */\n      dup2\n        /* \"#utility.yul\":10213:10227   */\n      lt\n        /* \"#utility.yul\":10205:10413   */\n      iszero\n      tag_218\n      jumpi\n        /* \"#utility.yul\":10298:10307   */\n      dup5\n        /* \"#utility.yul\":10293:10296   */\n      dup10\n        /* \"#utility.yul\":10289:10308   */\n      add\n        /* \"#utility.yul\":10283:10309   */\n      mload\n        /* \"#utility.yul\":10275:10281   */\n      dup3\n        /* \"#utility.yul\":10268:10310   */\n      sstore\n        /* \"#utility.yul\":10349:10350   */\n      0x01\n        /* \"#utility.yul\":10341:10347   */\n      dup3\n        /* \"#utility.yul\":10337:10351   */\n      add\n        /* \"#utility.yul\":10327:10351   */\n      swap2\n      pop\n        /* \"#utility.yul\":10396:10398   */\n      0x20\n        /* \"#utility.yul\":10385:10394   */\n      dup6\n        /* \"#utility.yul\":10381:10399   */\n      add\n        /* \"#utility.yul\":10368:10399   */\n      swap5\n      pop\n        /* \"#utility.yul\":10242:10246   */\n      0x20\n        /* \"#utility.yul\":10239:10240   */\n      dup2\n        /* \"#utility.yul\":10235:10247   */\n      add\n        /* \"#utility.yul\":10230:10247   */\n      swap1\n      pop\n        /* \"#utility.yul\":10205:10413   */\n      jump(tag_216)\n    tag_218:\n        /* \"#utility.yul\":10441:10447   */\n      dup7\n        /* \"#utility.yul\":10432:10439   */\n      dup4\n        /* \"#utility.yul\":10429:10448   */\n      lt\n        /* \"#utility.yul\":10426:10605   */\n      iszero\n      tag_219\n      jumpi\n        /* \"#utility.yul\":10499:10508   */\n      dup5\n        /* \"#utility.yul\":10494:10497   */\n      dup10\n        /* \"#utility.yul\":10490:10509   */\n      add\n        /* \"#utility.yul\":10484:10510   */\n      mload\n        /* \"#utility.yul\":10542:10590   */\n      tag_220\n        /* \"#utility.yul\":10584:10588   */\n      0x1f\n        /* \"#utility.yul\":10576:10582   */\n      dup10\n        /* \"#utility.yul\":10572:10589   */\n      and\n        /* \"#utility.yul\":10561:10570   */\n      dup3\n        /* \"#utility.yul\":10542:10590   */\n      tag_95\n      jump\t// in\n    tag_220:\n        /* \"#utility.yul\":10534:10540   */\n      dup4\n        /* \"#utility.yul\":10527:10591   */\n      sstore\n        /* \"#utility.yul\":10449:10605   */\n      pop\n        /* \"#utility.yul\":10426:10605   */\n    tag_219:\n        /* \"#utility.yul\":10651:10652   */\n      0x01\n        /* \"#utility.yul\":10647:10648   */\n      0x02\n        /* \"#utility.yul\":10639:10645   */\n      dup9\n        /* \"#utility.yul\":10635:10649   */\n      mul\n        /* \"#utility.yul\":10631:10653   */\n      add\n        /* \"#utility.yul\":10625:10629   */\n      dup9\n        /* \"#utility.yul\":10618:10654   */\n      sstore\n        /* \"#utility.yul\":10053:10664   */\n      pop\n      pop\n      pop\n        /* \"#utility.yul\":10016:10903   */\n    tag_211:\n      pop\n        /* \"#utility.yul\":9606:10909   */\n      pop\n      pop\n      pop\n        /* \"#utility.yul\":9514:10909   */\n      pop\n      pop\n      jump\t// out\n\n    auxdata: 0xa26469706673582212209c6c980268e53ceeca55be82001c841d1ec24c24166beb2b8a2435d1e38d14cf64736f6c634300081e0033\n}\n",
				"bytecode": {
					"linkReferences": {},
					"object": "6080604052348015600e575f5ffd5b50610a7f8061001c5f395ff3fe608060405234801561000f575f5ffd5b506004361061004a575f3560e01c80630f2a09191461004e578063436aa76c14610080578063be1c766b146100b2578063dd98baea146100d0575b5f5ffd5b610068600480360381019061006391906104a8565b6100ec565b60405161007793929190610552565b60405180910390f35b61009a600480360381019061009591906104a8565b61022c565b6040516100a993929190610552565b60405180910390f35b6100ba6103a2565b6040516100c79190610595565b60405180910390f35b6100ea60048036038101906100e591906106da565b6103ad565b005b5f81815481106100fa575f80fd5b905f5260205f2090600302015f91509050805f0180546101199061077d565b80601f01602080910402602001604051908101604052809291908181526020018280546101459061077d565b80156101905780601f1061016757610100808354040283529160200191610190565b820191905f5260205f20905b81548152906001019060200180831161017357829003601f168201915b5050505050908060010180546101a59061077d565b80601f01602080910402602001604051908101604052809291908181526020018280546101d19061077d565b801561021c5780601f106101f35761010080835404028352916020019161021c565b820191905f5260205f20905b8154815290600101906020018083116101ff57829003601f168201915b5050505050908060020154905083565b6060805f5f5f8581548110610244576102436107ad565b5b905f5260205f2090600302016040518060600160405290815f8201805461026a9061077d565b80601f01602080910402602001604051908101604052809291908181526020018280546102969061077d565b80156102e15780601f106102b8576101008083540402835291602001916102e1565b820191905f5260205f20905b8154815290600101906020018083116102c457829003601f168201915b505050505081526020016001820180546102fa9061077d565b80601f01602080910402602001604051908101604052809291908181526020018280546103269061077d565b80156103715780601f1061034857610100808354040283529160200191610371565b820191905f5260205f20905b81548152906001019060200180831161035457829003601f168201915b505050505081526020016002820154815250509050805f015181602001518260400151935093509350509193909250565b5f5f80549050905090565b5f604051806060016040528084815260200183815260200142815250908060018154018082558091505060019003905f5260205f2090600302015f909190919091505f820151815f019081610402919061097a565b506020820151816001019081610418919061097a565b506040820151816002015550507f96e7d2471ca3eba2bd9f84779ecc4b4da4047b359435296ab027d0cb6df15f1982824260405161045893929190610552565b60405180910390a15050565b5f604051905090565b5f5ffd5b5f5ffd5b5f819050919050565b61048781610475565b8114610491575f5ffd5b50565b5f813590506104a28161047e565b92915050565b5f602082840312156104bd576104bc61046d565b5b5f6104ca84828501610494565b91505092915050565b5f81519050919050565b5f82825260208201905092915050565b8281835e5f83830152505050565b5f601f19601f8301169050919050565b5f610515826104d3565b61051f81856104dd565b935061052f8185602086016104ed565b610538816104fb565b840191505092915050565b61054c81610475565b82525050565b5f6060820190508181035f83015261056a818661050b565b9050818103602083015261057e818561050b565b905061058d6040830184610543565b949350505050565b5f6020820190506105a85f830184610543565b92915050565b5f5ffd5b5f5ffd5b7f4e487b71000000000000000000000000000000000000000000000000000000005f52604160045260245ffd5b6105ec826104fb565b810181811067ffffffffffffffff8211171561060b5761060a6105b6565b5b80604052505050565b5f61061d610464565b905061062982826105e3565b919050565b5f67ffffffffffffffff821115610648576106476105b6565b5b610651826104fb565b9050602081019050919050565b828183375f83830152505050565b5f61067e6106798461062e565b610614565b90508281526020810184848401111561069a576106996105b2565b5b6106a584828561065e565b509392505050565b5f82601f8301126106c1576106c06105ae565b5b81356106d184826020860161066c565b91505092915050565b5f5f604083850312156106f0576106ef61046d565b5b5f83013567ffffffffffffffff81111561070d5761070c610471565b5b610719858286016106ad565b925050602083013567ffffffffffffffff81111561073a57610739610471565b5b610746858286016106ad565b9150509250929050565b7f4e487b71000000000000000000000000000000000000000000000000000000005f52602260045260245ffd5b5f600282049050600182168061079457607f821691505b6020821081036107a7576107a6610750565b5b50919050565b7f4e487b71000000000000000000000000000000000000000000000000000000005f52603260045260245ffd5b5f819050815f5260205f209050919050565b5f6020601f8301049050919050565b5f82821b905092915050565b5f600883026108367fffffffffffffffffffffffffffffffffffffffffffffffffffffffffffffffff826107fb565b61084086836107fb565b95508019841693508086168417925050509392505050565b5f819050919050565b5f61087b61087661087184610475565b610858565b610475565b9050919050565b5f819050919050565b61089483610861565b6108a86108a082610882565b848454610807565b825550505050565b5f5f905090565b6108bf6108b0565b6108ca81848461088b565b505050565b5b818110156108ed576108e25f826108b7565b6001810190506108d0565b5050565b601f82111561093257610903816107da565b61090c846107ec565b8101602085101561091b578190505b61092f610927856107ec565b8301826108cf565b50505b505050565b5f82821c905092915050565b5f6109525f1984600802610937565b1980831691505092915050565b5f61096a8383610943565b9150826002028217905092915050565b610983826104d3565b67ffffffffffffffff81111561099c5761099b6105b6565b5b6109a6825461077d565b6109b18282856108f1565b5f60209050601f8311600181146109e2575f84156109d0578287015190505b6109da858261095f565b865550610a41565b601f1984166109f0866107da565b5f5b82811015610a17578489015182556001820191506020850194506020810190506109f2565b86831015610a345784890151610a30601f891682610943565b8355505b6001600288020188555050505b50505050505056fea26469706673582212209c6c980268e53ceeca55be82001c841d1ec24c24166beb2b8a2435d1e38d14cf64736f6c634300081e0033",
					"opcodes": "PUSH1 0x80 PUSH1 0x40 MSTORE CALLVALUE DUP1 ISZERO PUSH1 0xE JUMPI PUSH0 PUSH0 REVERT JUMPDEST POP PUSH2 0xA7F DUP1 PUSH2 0x1C PUSH0 CODECOPY PUSH0 RETURN INVALID PUSH1 0x80 PUSH1 0x40 MSTORE CALLVALUE DUP1 ISZERO PUSH2 0xF JUMPI PUSH0 PUSH0 REVERT JUMPDEST POP PUSH1 0x4 CALLDATASIZE LT PUSH2 0x4A JUMPI PUSH0 CALLDATALOAD PUSH1 0xE0 SHR DUP1 PUSH4 0xF2A0919 EQ PUSH2 0x4E JUMPI DUP1 PUSH4 0x436AA76C EQ PUSH2 0x80 JUMPI DUP1 PUSH4 0xBE1C766B EQ PUSH2 0xB2 JUMPI DUP1 PUSH4 0xDD98BAEA EQ PUSH2 0xD0 JUMPI JUMPDEST PUSH0 PUSH0 REVERT JUMPDEST PUSH2 0x68 PUSH1 0x4 DUP1 CALLDATASIZE SUB DUP2 ADD SWAP1 PUSH2 0x63 SWAP2 SWAP1 PUSH2 0x4A8 JUMP JUMPDEST PUSH2 0xEC JUMP JUMPDEST PUSH1 0x40 MLOAD PUSH2 0x77 SWAP4 SWAP3 SWAP2 SWAP1 PUSH2 0x552 JUMP JUMPDEST PUSH1 0x40 MLOAD DUP1 SWAP2 SUB SWAP1 RETURN JUMPDEST PUSH2 0x9A PUSH1 0x4 DUP1 CALLDATASIZE SUB DUP2 ADD SWAP1 PUSH2 0x95 SWAP2 SWAP1 PUSH2 0x4A8 JUMP JUMPDEST PUSH2 0x22C JUMP JUMPDEST PUSH1 0x40 MLOAD PUSH2 0xA9 SWAP4 SWAP3 SWAP2 SWAP1 PUSH2 0x552 JUMP JUMPDEST PUSH1 0x40 MLOAD DUP1 SWAP2 SUB SWAP1 RETURN JUMPDEST PUSH2 0xBA PUSH2 0x3A2 JUMP JUMPDEST PUSH1 0x40 MLOAD PUSH2 0xC7 SWAP2 SWAP1 PUSH2 0x595 JUMP JUMPDEST PUSH1 0x40 MLOAD DUP1 SWAP2 SUB SWAP1 RETURN JUMPDEST PUSH2 0xEA PUSH1 0x4 DUP1 CALLDATASIZE SUB DUP2 ADD SWAP1 PUSH2 0xE5 SWAP2 SWAP1 PUSH2 0x6DA JUMP JUMPDEST PUSH2 0x3AD JUMP JUMPDEST STOP JUMPDEST PUSH0 DUP2 DUP2 SLOAD DUP2 LT PUSH2 0xFA JUMPI PUSH0 DUP1 REVERT JUMPDEST SWAP1 PUSH0 MSTORE PUSH1 0x20 PUSH0 KECCAK256 SWAP1 PUSH1 0x3 MUL ADD PUSH0 SWAP2 POP SWAP1 POP DUP1 PUSH0 ADD DUP1 SLOAD PUSH2 0x119 SWAP1 PUSH2 0x77D JUMP JUMPDEST DUP1 PUSH1 0x1F ADD PUSH1 0x20 DUP1 SWAP2 DIV MUL PUSH1 0x20 ADD PUSH1 0x40 MLOAD SWAP1 DUP2 ADD PUSH1 0x40 MSTORE DUP1 SWAP3 SWAP2 SWAP1 DUP2 DUP2 MSTORE PUSH1 0x20 ADD DUP3 DUP1 SLOAD PUSH2 0x145 SWAP1 PUSH2 0x77D JUMP JUMPDEST DUP1 ISZERO PUSH2 0x190 JUMPI DUP1 PUSH1 0x1F LT PUSH2 0x167 JUMPI PUSH2 0x100 DUP1 DUP4 SLOAD DIV MUL DUP4 MSTORE SWAP2 PUSH1 0x20 ADD SWAP2 PUSH2 0x190 JUMP JUMPDEST DUP3 ADD SWAP2 SWAP1 PUSH0 MSTORE PUSH1 0x20 PUSH0 KECCAK256 SWAP1 JUMPDEST DUP2 SLOAD DUP2 MSTORE SWAP1 PUSH1 0x1 ADD SWAP1 PUSH1 0x20 ADD DUP1 DUP4 GT PUSH2 0x173 JUMPI DUP3 SWAP1 SUB PUSH1 0x1F AND DUP3 ADD SWAP2 JUMPDEST POP POP POP POP POP SWAP1 DUP1 PUSH1 0x1 ADD DUP1 SLOAD PUSH2 0x1A5 SWAP1 PUSH2 0x77D JUMP JUMPDEST DUP1 PUSH1 0x1F ADD PUSH1 0x20 DUP1 SWAP2 DIV MUL PUSH1 0x20 ADD PUSH1 0x40 MLOAD SWAP1 DUP2 ADD PUSH1 0x40 MSTORE DUP1 SWAP3 SWAP2 SWAP1 DUP2 DUP2 MSTORE PUSH1 0x20 ADD DUP3 DUP1 SLOAD PUSH2 0x1D1 SWAP1 PUSH2 0x77D JUMP JUMPDEST DUP1 ISZERO PUSH2 0x21C JUMPI DUP1 PUSH1 0x1F LT PUSH2 0x1F3 JUMPI PUSH2 0x100 DUP1 DUP4 SLOAD DIV MUL DUP4 MSTORE SWAP2 PUSH1 0x20 ADD SWAP2 PUSH2 0x21C JUMP JUMPDEST DUP3 ADD SWAP2 SWAP1 PUSH0 MSTORE PUSH1 0x20 PUSH0 KECCAK256 SWAP1 JUMPDEST DUP2 SLOAD DUP2 MSTORE SWAP1 PUSH1 0x1 ADD SWAP1 PUSH1 0x20 ADD DUP1 DUP4 GT PUSH2 0x1FF JUMPI DUP3 SWAP1 SUB PUSH1 0x1F AND DUP3 ADD SWAP2 JUMPDEST POP POP POP POP POP SWAP1 DUP1 PUSH1 0x2 ADD SLOAD SWAP1 POP DUP4 JUMP JUMPDEST PUSH1 0x60 DUP1 PUSH0 PUSH0 PUSH0 DUP6 DUP2 SLOAD DUP2 LT PUSH2 0x244 JUMPI PUSH2 0x243 PUSH2 0x7AD JUMP JUMPDEST JUMPDEST SWAP1 PUSH0 MSTORE PUSH1 0x20 PUSH0 KECCAK256 SWAP1 PUSH1 0x3 MUL ADD PUSH1 0x40 MLOAD DUP1 PUSH1 0x60 ADD PUSH1 0x40 MSTORE SWAP1 DUP2 PUSH0 DUP3 ADD DUP1 SLOAD PUSH2 0x26A SWAP1 PUSH2 0x77D JUMP JUMPDEST DUP1 PUSH1 0x1F ADD PUSH1 0x20 DUP1 SWAP2 DIV MUL PUSH1 0x20 ADD PUSH1 0x40 MLOAD SWAP1 DUP2 ADD PUSH1 0x40 MSTORE DUP1 SWAP3 SWAP2 SWAP1 DUP2 DUP2 MSTORE PUSH1 0x20 ADD DUP3 DUP1 SLOAD PUSH2 0x296 SWAP1 PUSH2 0x77D JUMP JUMPDEST DUP1 ISZERO PUSH2 0x2E1 JUMPI DUP1 PUSH1 0x1F LT PUSH2 0x2B8 JUMPI PUSH2 0x100 DUP1 DUP4 SLOAD DIV MUL DUP4 MSTORE SWAP2 PUSH1 0x20 ADD SWAP2 PUSH2 0x2E1 JUMP JUMPDEST DUP3 ADD SWAP2 SWAP1 PUSH0 MSTORE PUSH1 0x20 PUSH0 KECCAK256 SWAP1 JUMPDEST DUP2 SLOAD DUP2 MSTORE SWAP1 PUSH1 0x1 ADD SWAP1 PUSH1 0x20 ADD DUP1 DUP4 GT PUSH2 0x2C4 JUMPI DUP3 SWAP1 SUB PUSH1 0x1F AND DUP3 ADD SWAP2 JUMPDEST POP POP POP POP POP DUP2 MSTORE PUSH1 0x20 ADD PUSH1 0x1 DUP3 ADD DUP1 SLOAD PUSH2 0x2FA SWAP1 PUSH2 0x77D JUMP JUMPDEST DUP1 PUSH1 0x1F ADD PUSH1 0x20 DUP1 SWAP2 DIV MUL PUSH1 0x20 ADD PUSH1 0x40 MLOAD SWAP1 DUP2 ADD PUSH1 0x40 MSTORE DUP1 SWAP3 SWAP2 SWAP1 DUP2 DUP2 MSTORE PUSH1 0x20 ADD DUP3 DUP1 SLOAD PUSH2 0x326 SWAP1 PUSH2 0x77D JUMP JUMPDEST DUP1 ISZERO PUSH2 0x371 JUMPI DUP1 PUSH1 0x1F LT PUSH2 0x348 JUMPI PUSH2 0x100 DUP1 DUP4 SLOAD DIV MUL DUP4 MSTORE SWAP2 PUSH1 0x20 ADD SWAP2 PUSH2 0x371 JUMP JUMPDEST DUP3 ADD SWAP2 SWAP1 PUSH0 MSTORE PUSH1 0x20 PUSH0 KECCAK256 SWAP1 JUMPDEST DUP2 SLOAD DUP2 MSTORE SWAP1 PUSH1 0x1 ADD SWAP1 PUSH1 0x20 ADD DUP1 DUP4 GT PUSH2 0x354 JUMPI DUP3 SWAP1 SUB PUSH1 0x1F AND DUP3 ADD SWAP2 JUMPDEST POP POP POP POP POP DUP2 MSTORE PUSH1 0x20 ADD PUSH1 0x2 DUP3 ADD SLOAD DUP2 MSTORE POP POP SWAP1 POP DUP1 PUSH0 ADD MLOAD DUP2 PUSH1 0x20 ADD MLOAD DUP3 PUSH1 0x40 ADD MLOAD SWAP4 POP SWAP4 POP SWAP4 POP POP SWAP2 SWAP4 SWAP1 SWAP3 POP JUMP JUMPDEST PUSH0 PUSH0 DUP1 SLOAD SWAP1 POP SWAP1 POP SWAP1 JUMP JUMPDEST PUSH0 PUSH1 0x40 MLOAD DUP1 PUSH1 0x60 ADD PUSH1 0x40 MSTORE DUP1 DUP5 DUP2 MSTORE PUSH1 0x20 ADD DUP4 DUP2 MSTORE PUSH1 0x20 ADD TIMESTAMP DUP2 MSTORE POP SWAP1 DUP1 PUSH1 0x1 DUP2 SLOAD ADD DUP1 DUP3 SSTORE DUP1 SWAP2 POP POP PUSH1 0x1 SWAP1 SUB SWAP1 PUSH0 MSTORE PUSH1 0x20 PUSH0 KECCAK256 SWAP1 PUSH1 0x3 MUL ADD PUSH0 SWAP1 SWAP2 SWAP1 SWAP2 SWAP1 SWAP2 POP PUSH0 DUP3 ADD MLOAD DUP2 PUSH0 ADD SWAP1 DUP2 PUSH2 0x402 SWAP2 SWAP1 PUSH2 0x97A JUMP JUMPDEST POP PUSH1 0x20 DUP3 ADD MLOAD DUP2 PUSH1 0x1 ADD SWAP1 DUP2 PUSH2 0x418 SWAP2 SWAP1 PUSH2 0x97A JUMP JUMPDEST POP PUSH1 0x40 DUP3 ADD MLOAD DUP2 PUSH1 0x2 ADD SSTORE POP POP PUSH32 0x96E7D2471CA3EBA2BD9F84779ECC4B4DA4047B359435296AB027D0CB6DF15F19 DUP3 DUP3 TIMESTAMP PUSH1 0x40 MLOAD PUSH2 0x458 SWAP4 SWAP3 SWAP2 SWAP1 PUSH2 0x552 JUMP JUMPDEST PUSH1 0x40 MLOAD DUP1 SWAP2 SUB SWAP1 LOG1 POP POP JUMP JUMPDEST PUSH0 PUSH1 0x40 MLOAD SWAP1 POP SWAP1 JUMP JUMPDEST PUSH0 PUSH0 REVERT JUMPDEST PUSH0 PUSH0 REVERT JUMPDEST PUSH0 DUP2 SWAP1 POP SWAP2 SWAP1 POP JUMP JUMPDEST PUSH2 0x487 DUP2 PUSH2 0x475 JUMP JUMPDEST DUP2 EQ PUSH2 0x491 JUMPI PUSH0 PUSH0 REVERT JUMPDEST POP JUMP JUMPDEST PUSH0 DUP2 CALLDATALOAD SWAP1 POP PUSH2 0x4A2 DUP2 PUSH2 0x47E JUMP JUMPDEST SWAP3 SWAP2 POP POP JUMP JUMPDEST PUSH0 PUSH1 0x20 DUP3 DUP5 SUB SLT ISZERO PUSH2 0x4BD JUMPI PUSH2 0x4BC PUSH2 0x46D JUMP JUMPDEST JUMPDEST PUSH0 PUSH2 0x4CA DUP5 DUP3 DUP6 ADD PUSH2 0x494 JUMP JUMPDEST SWAP2 POP POP SWAP3 SWAP2 POP POP JUMP JUMPDEST PUSH0 DUP2 MLOAD SWAP1 POP SWAP2 SWAP1 POP JUMP JUMPDEST PUSH0 DUP3 DUP3 MSTORE PUSH1 0x20 DUP3 ADD SWAP1 POP SWAP3 SWAP2 POP POP JUMP JUMPDEST DUP3 DUP2 DUP4 MCOPY PUSH0 DUP4 DUP4 ADD MSTORE POP POP POP JUMP JUMPDEST PUSH0 PUSH1 0x1F NOT PUSH1 0x1F DUP4 ADD AND SWAP1 POP SWAP2 SWAP1 POP JUMP JUMPDEST PUSH0 PUSH2 0x515 DUP3 PUSH2 0x4D3 JUMP JUMPDEST PUSH2 0x51F DUP2 DUP6 PUSH2 0x4DD JUMP JUMPDEST SWAP4 POP PUSH2 0x52F DUP2 DUP6 PUSH1 0x20 DUP7 ADD PUSH2 0x4ED JUMP JUMPDEST PUSH2 0x538 DUP2 PUSH2 0x4FB JUMP JUMPDEST DUP5 ADD SWAP2 POP POP SWAP3 SWAP2 POP POP JUMP JUMPDEST PUSH2 0x54C DUP2 PUSH2 0x475 JUMP JUMPDEST DUP3 MSTORE POP POP JUMP JUMPDEST PUSH0 PUSH1 0x60 DUP3 ADD SWAP1 POP DUP2 DUP2 SUB PUSH0 DUP4 ADD MSTORE PUSH2 0x56A DUP2 DUP7 PUSH2 0x50B JUMP JUMPDEST SWAP1 POP DUP2 DUP2 SUB PUSH1 0x20 DUP4 ADD MSTORE PUSH2 0x57E DUP2 DUP6 PUSH2 0x50B JUMP JUMPDEST SWAP1 POP PUSH2 0x58D PUSH1 0x40 DUP4 ADD DUP5 PUSH2 0x543 JUMP JUMPDEST SWAP5 SWAP4 POP POP POP POP JUMP JUMPDEST PUSH0 PUSH1 0x20 DUP3 ADD SWAP1 POP PUSH2 0x5A8 PUSH0 DUP4 ADD DUP5 PUSH2 0x543 JUMP JUMPDEST SWAP3 SWAP2 POP POP JUMP JUMPDEST PUSH0 PUSH0 REVERT JUMPDEST PUSH0 PUSH0 REVERT JUMPDEST PUSH32 0x4E487B7100000000000000000000000000000000000000000000000000000000 PUSH0 MSTORE PUSH1 0x41 PUSH1 0x4 MSTORE PUSH1 0x24 PUSH0 REVERT JUMPDEST PUSH2 0x5EC DUP3 PUSH2 0x4FB JUMP JUMPDEST DUP2 ADD DUP2 DUP2 LT PUSH8 0xFFFFFFFFFFFFFFFF DUP3 GT OR ISZERO PUSH2 0x60B JUMPI PUSH2 0x60A PUSH2 0x5B6 JUMP JUMPDEST JUMPDEST DUP1 PUSH1 0x40 MSTORE POP POP POP JUMP JUMPDEST PUSH0 PUSH2 0x61D PUSH2 0x464 JUMP JUMPDEST SWAP1 POP PUSH2 0x629 DUP3 DUP3 PUSH2 0x5E3 JUMP JUMPDEST SWAP2 SWAP1 POP JUMP JUMPDEST PUSH0 PUSH8 0xFFFFFFFFFFFFFFFF DUP3 GT ISZERO PUSH2 0x648 JUMPI PUSH2 0x647 PUSH2 0x5B6 JUMP JUMPDEST JUMPDEST PUSH2 0x651 DUP3 PUSH2 0x4FB JUMP JUMPDEST SWAP1 POP PUSH1 0x20 DUP2 ADD SWAP1 POP SWAP2 SWAP1 POP JUMP JUMPDEST DUP3 DUP2 DUP4 CALLDATACOPY PUSH0 DUP4 DUP4 ADD MSTORE POP POP POP JUMP JUMPDEST PUSH0 PUSH2 0x67E PUSH2 0x679 DUP5 PUSH2 0x62E JUMP JUMPDEST PUSH2 0x614 JUMP JUMPDEST SWAP1 POP DUP3 DUP2 MSTORE PUSH1 0x20 DUP2 ADD DUP5 DUP5 DUP5 ADD GT ISZERO PUSH2 0x69A JUMPI PUSH2 0x699 PUSH2 0x5B2 JUMP JUMPDEST JUMPDEST PUSH2 0x6A5 DUP5 DUP3 DUP6 PUSH2 0x65E JUMP JUMPDEST POP SWAP4 SWAP3 POP POP POP JUMP JUMPDEST PUSH0 DUP3 PUSH1 0x1F DUP4 ADD SLT PUSH2 0x6C1 JUMPI PUSH2 0x6C0 PUSH2 0x5AE JUMP JUMPDEST JUMPDEST DUP2 CALLDATALOAD PUSH2 0x6D1 DUP5 DUP3 PUSH1 0x20 DUP7 ADD PUSH2 0x66C JUMP JUMPDEST SWAP2 POP POP SWAP3 SWAP2 POP POP JUMP JUMPDEST PUSH0 PUSH0 PUSH1 0x40 DUP4 DUP6 SUB SLT ISZERO PUSH2 0x6F0 JUMPI PUSH2 0x6EF PUSH2 0x46D JUMP JUMPDEST JUMPDEST PUSH0 DUP4 ADD CALLDATALOAD PUSH8 0xFFFFFFFFFFFFFFFF DUP2 GT ISZERO PUSH2 0x70D JUMPI PUSH2 0x70C PUSH2 0x471 JUMP JUMPDEST JUMPDEST PUSH2 0x719 DUP6 DUP3 DUP7 ADD PUSH2 0x6AD JUMP JUMPDEST SWAP3 POP POP PUSH1 0x20 DUP4 ADD CALLDATALOAD PUSH8 0xFFFFFFFFFFFFFFFF DUP2 GT ISZERO PUSH2 0x73A JUMPI PUSH2 0x739 PUSH2 0x471 JUMP JUMPDEST JUMPDEST PUSH2 0x746 DUP6 DUP3 DUP7 ADD PUSH2 0x6AD JUMP JUMPDEST SWAP2 POP POP SWAP3 POP SWAP3 SWAP1 POP JUMP JUMPDEST PUSH32 0x4E487B7100000000000000000000000000000000000000000000000000000000 PUSH0 MSTORE PUSH1 0x22 PUSH1 0x4 MSTORE PUSH1 0x24 PUSH0 REVERT JUMPDEST PUSH0 PUSH1 0x2 DUP3 DIV SWAP1 POP PUSH1 0x1 DUP3 AND DUP1 PUSH2 0x794 JUMPI PUSH1 0x7F DUP3 AND SWAP2 POP JUMPDEST PUSH1 0x20 DUP3 LT DUP2 SUB PUSH2 0x7A7 JUMPI PUSH2 0x7A6 PUSH2 0x750 JUMP JUMPDEST JUMPDEST POP SWAP2 SWAP1 POP JUMP JUMPDEST PUSH32 0x4E487B7100000000000000000000000000000000000000000000000000000000 PUSH0 MSTORE PUSH1 0x32 PUSH1 0x4 MSTORE PUSH1 0x24 PUSH0 REVERT JUMPDEST PUSH0 DUP2 SWAP1 POP DUP2 PUSH0 MSTORE PUSH1 0x20 PUSH0 KECCAK256 SWAP1 POP SWAP2 SWAP1 POP JUMP JUMPDEST PUSH0 PUSH1 0x20 PUSH1 0x1F DUP4 ADD DIV SWAP1 POP SWAP2 SWAP1 POP JUMP JUMPDEST PUSH0 DUP3 DUP3 SHL SWAP1 POP SWAP3 SWAP2 POP POP JUMP JUMPDEST PUSH0 PUSH1 0x8 DUP4 MUL PUSH2 0x836 PUSH32 0xFFFFFFFFFFFFFFFFFFFFFFFFFFFFFFFFFFFFFFFFFFFFFFFFFFFFFFFFFFFFFFFF DUP3 PUSH2 0x7FB JUMP JUMPDEST PUSH2 0x840 DUP7 DUP4 PUSH2 0x7FB JUMP JUMPDEST SWAP6 POP DUP1 NOT DUP5 AND SWAP4 POP DUP1 DUP7 AND DUP5 OR SWAP3 POP POP POP SWAP4 SWAP3 POP POP POP JUMP JUMPDEST PUSH0 DUP2 SWAP1 POP SWAP2 SWAP1 POP JUMP JUMPDEST PUSH0 PUSH2 0x87B PUSH2 0x876 PUSH2 0x871 DUP5 PUSH2 0x475 JUMP JUMPDEST PUSH2 0x858 JUMP JUMPDEST PUSH2 0x475 JUMP JUMPDEST SWAP1 POP SWAP2 SWAP1 POP JUMP JUMPDEST PUSH0 DUP2 SWAP1 POP SWAP2 SWAP1 POP JUMP JUMPDEST PUSH2 0x894 DUP4 PUSH2 0x861 JUMP JUMPDEST PUSH2 0x8A8 PUSH2 0x8A0 DUP3 PUSH2 0x882 JUMP JUMPDEST DUP5 DUP5 SLOAD PUSH2 0x807 JUMP JUMPDEST DUP3 SSTORE POP POP POP POP JUMP JUMPDEST PUSH0 PUSH0 SWAP1 POP SWAP1 JUMP JUMPDEST PUSH2 0x8BF PUSH2 0x8B0 JUMP JUMPDEST PUSH2 0x8CA DUP2 DUP5 DUP5 PUSH2 0x88B JUMP JUMPDEST POP POP POP JUMP JUMPDEST JUMPDEST DUP2 DUP2 LT ISZERO PUSH2 0x8ED JUMPI PUSH2 0x8E2 PUSH0 DUP3 PUSH2 0x8B7 JUMP JUMPDEST PUSH1 0x1 DUP2 ADD SWAP1 POP PUSH2 0x8D0 JUMP JUMPDEST POP POP JUMP JUMPDEST PUSH1 0x1F DUP3 GT ISZERO PUSH2 0x932 JUMPI PUSH2 0x903 DUP2 PUSH2 0x7DA JUMP JUMPDEST PUSH2 0x90C DUP5 PUSH2 0x7EC JUMP JUMPDEST DUP2 ADD PUSH1 0x20 DUP6 LT ISZERO PUSH2 0x91B JUMPI DUP2 SWAP1 POP JUMPDEST PUSH2 0x92F PUSH2 0x927 DUP6 PUSH2 0x7EC JUMP JUMPDEST DUP4 ADD DUP3 PUSH2 0x8CF JUMP JUMPDEST POP POP JUMPDEST POP POP POP JUMP JUMPDEST PUSH0 DUP3 DUP3 SHR SWAP1 POP SWAP3 SWAP2 POP POP JUMP JUMPDEST PUSH0 PUSH2 0x952 PUSH0 NOT DUP5 PUSH1 0x8 MUL PUSH2 0x937 JUMP JUMPDEST NOT DUP1 DUP4 AND SWAP2 POP POP SWAP3 SWAP2 POP POP JUMP JUMPDEST PUSH0 PUSH2 0x96A DUP4 DUP4 PUSH2 0x943 JUMP JUMPDEST SWAP2 POP DUP3 PUSH1 0x2 MUL DUP3 OR SWAP1 POP SWAP3 SWAP2 POP POP JUMP JUMPDEST PUSH2 0x983 DUP3 PUSH2 0x4D3 JUMP JUMPDEST PUSH8 0xFFFFFFFFFFFFFFFF DUP2 GT ISZERO PUSH2 0x99C JUMPI PUSH2 0x99B PUSH2 0x5B6 JUMP JUMPDEST JUMPDEST PUSH2 0x9A6 DUP3 SLOAD PUSH2 0x77D JUMP JUMPDEST PUSH2 0x9B1 DUP3 DUP3 DUP6 PUSH2 0x8F1 JUMP JUMPDEST PUSH0 PUSH1 0x20 SWAP1 POP PUSH1 0x1F DUP4 GT PUSH1 0x1 DUP2 EQ PUSH2 0x9E2 JUMPI PUSH0 DUP5 ISZERO PUSH2 0x9D0 JUMPI DUP3 DUP8 ADD MLOAD SWAP1 POP JUMPDEST PUSH2 0x9DA DUP6 DUP3 PUSH2 0x95F JUMP JUMPDEST DUP7 SSTORE POP PUSH2 0xA41 JUMP JUMPDEST PUSH1 0x1F NOT DUP5 AND PUSH2 0x9F0 DUP7 PUSH2 0x7DA JUMP JUMPDEST PUSH0 JUMPDEST DUP3 DUP2 LT ISZERO PUSH2 0xA17 JUMPI DUP5 DUP10 ADD MLOAD DUP3 SSTORE PUSH1 0x1 DUP3 ADD SWAP2 POP PUSH1 0x20 DUP6 ADD SWAP5 POP PUSH1 0x20 DUP2 ADD SWAP1 POP PUSH2 0x9F2 JUMP JUMPDEST DUP7 DUP4 LT ISZERO PUSH2 0xA34 JUMPI DUP5 DUP10 ADD MLOAD PUSH2 0xA30 PUSH1 0x1F DUP10 AND DUP3 PUSH2 0x943 JUMP JUMPDEST DUP4 SSTORE POP JUMPDEST PUSH1 0x1 PUSH1 0x2 DUP9 MUL ADD DUP9 SSTORE POP POP POP JUMPDEST POP POP POP POP POP POP JUMP INVALID LOG2 PUSH5 0x6970667358 0x22 SLT KECCAK256 SWAP13 PUSH13 0x980268E53CEECA55BE82001C84 SAR 0x1E 0xC2 0x4C 0x24 AND PUSH12 0xEB2B8A2435D1E38D14CF6473 PUSH16 0x6C634300081E00330000000000000000 "
				},
				"gasEstimates": {
					"creation": {
						"codeDepositCost": "537400",
						"executionCost": "566",
						"totalCost": "537966"
					},
					"external": {
						"addIP(string,string)": "infinite",
						"blacklist(uint256)": "infinite",
						"getIP(uint256)": "infinite",
						"getLength()": "2461"
					}
				},
				"methodIdentifiers": {
					"addIP(string,string)": "dd98baea",
					"blacklist(uint256)": "0f2a0919",
					"getIP(uint256)": "436aa76c",
					"getLength()": "be1c766b"
				}
			},
			"storageLayout": {
				"storage": [
					{
						"astId": 12,
						"contract": "ddos.sol:Blacklist",
						"label": "blacklist",
						"offset": 0,
						"slot": "0",
						"type": "t_array(t_struct(Entry)8_storage)dyn_storage"
					}
				],
				"types": {
					"t_array(t_struct(Entry)8_storage)dyn_storage": {
						"base": "t_struct(Entry)8_storage",
						"encoding": "dynamic_array",
						"label": "struct Blacklist.Entry[]",
						"numberOfBytes": "32"
					},
					"t_string_storage": {
						"encoding": "bytes",
						"label": "string",
						"numberOfBytes": "32"
					},
					"t_struct(Entry)8_storage": {
						"encoding": "inplace",
						"label": "struct Blacklist.Entry",
						"members": [
							{
								"astId": 3,
								"contract": "ddos.sol:Blacklist",
								"label": "ip",
								"offset": 0,
								"slot": "0",
								"type": "t_string_storage"
							},
							{
								"astId": 5,
								"contract": "ddos.sol:Blacklist",
								"label": "reason",
								"offset": 0,
								"slot": "1",
								"type": "t_string_storage"
							},
							{
								"astId": 7,
								"contract": "ddos.sol:Blacklist",
								"label": "timestamp",
								"offset": 0,
								"slot": "2",
								"type": "t_uint256"
							}
						],
						"numberOfBytes": "96"
					},
					"t_uint256": {
						"encoding": "inplace",
						"label": "uint256",
						"numberOfBytes": "32"
					}
				}
			},
			"userdoc": {
				"kind": "user",
				"methods": {},
				"version": 1
			}
		}
	}
}